{"abi":[{"inputs":[{"internalType":"uint256","name":"minimum","type":"uint256"},{"internalType":"address","name":"creator","type":"address"}],"stateMutability":"nonpayable","type":"constructor"},{"inputs":[{"internalType":"uint256","name":"index","type":"uint256"}],"name":"approveRequest","outputs":[],"stateMutability":"nonpayable","type":"function"},{"inputs":[{"internalType":"address","name":"","type":"address"}],"name":"approvers","outputs":[{"internalType":"bool","name":"","type":"bool"}],"stateMutability":"view","type":"function"},{"inputs":[],"name":"approversCount","outputs":[{"internalType":"uint256","name":"","type":"uint256"}],"stateMutability":"view","type":"function"},{"inputs":[],"name":"contractAddress","outputs":[{"internalType":"address","name":"","type":"address"}],"stateMutability":"view","type":"function"},{"inputs":[],"name":"contribute","outputs":[],"stateMutability":"payable","type":"function"},{"inputs":[{"internalType":"string","name":"description","type":"string"},{"internalType":"uint256","name":"value","type":"uint256"},{"internalType":"address payable","name":"recipient","type":"address"}],"name":"createRequest","outputs":[],"stateMutability":"nonpayable","type":"function"},{"inputs":[{"internalType":"uint256","name":"index","type":"uint256"}],"name":"finaliseRequest","outputs":[],"stateMutability":"nonpayable","type":"function"},{"inputs":[],"name":"getRequestsCount","outputs":[{"internalType":"uint256","name":"","type":"uint256"}],"stateMutability":"view","type":"function"},{"inputs":[],"name":"getSummary","outputs":[{"internalType":"uint256","name":"","type":"uint256"},{"internalType":"uint256","name":"","type":"uint256"},{"internalType":"uint256","name":"","type":"uint256"},{"internalType":"uint256","name":"","type":"uint256"},{"internalType":"address","name":"","type":"address"}],"stateMutability":"view","type":"function"},{"inputs":[],"name":"manager","outputs":[{"internalType":"address","name":"","type":"address"}],"stateMutability":"view","type":"function"},{"inputs":[],"name":"minimumContribution","outputs":[{"internalType":"uint256","name":"","type":"uint256"}],"stateMutability":"view","type":"function"},{"inputs":[{"internalType":"uint256","name":"","type":"uint256"}],"name":"requests","outputs":[{"internalType":"string","name":"description","type":"string"},{"internalType":"uint256","name":"value","type":"uint256"},{"internalType":"address payable","name":"recipient","type":"address"},{"internalType":"bool","name":"complete","type":"bool"},{"internalType":"uint256","name":"approvalCount","type":"uint256"}],"stateMutability":"view","type":"function"},{"inputs":[],"name":"requestsCount","outputs":[{"internalType":"uint256","name":"","type":"uint256"}],"stateMutability":"view","type":"function"}],"devdoc":{"kind":"dev","methods":{},"version":1},"evm":{"assembly":"    /* \"Campaign.sol\":481:3331  contract Campaign {... */\n  mstore(0x40, 0x80)\n    /* \"Campaign.sol\":1083:1087  this */\n  address\n    /* \"Campaign.sol\":1042:1088  address public contractAddress = address(this) */\n  0x06\n  exp(0x0100, 0x00)\n  dup2\n  sload\n  dup2\n  0xffffffffffffffffffffffffffffffffffffffff\n  mul\n  not\n  and\n  swap1\n  dup4\n  0xffffffffffffffffffffffffffffffffffffffff\n  and\n  mul\n  or\n  swap1\n  sstore\n  pop\n    /* \"Campaign.sol\":1216:1350  constructor(uint minimum, address creator) {... */\n  callvalue\n  dup1\n  iszero\n  tag_1\n  jumpi\n  0x00\n  dup1\n  revert\ntag_1:\n  pop\n  mload(0x40)\n  sub(codesize, bytecodeSize)\n  dup1\n  bytecodeSize\n  dup4\n  codecopy\n  dup2\n  dup2\n  add\n  0x40\n  mstore\n  dup2\n  add\n  swap1\n  tag_2\n  swap2\n  swap1\n  tag_3\n  jump\t// in\ntag_2:\n    /* \"Campaign.sol\":1279:1286  creator */\n  dup1\n    /* \"Campaign.sol\":1269:1276  manager */\n  0x01\n  0x00\n    /* \"Campaign.sol\":1269:1286  manager = creator */\n  0x0100\n  exp\n  dup2\n  sload\n  dup2\n  0xffffffffffffffffffffffffffffffffffffffff\n  mul\n  not\n  and\n  swap1\n  dup4\n  0xffffffffffffffffffffffffffffffffffffffff\n  and\n  mul\n  or\n  swap1\n  sstore\n  pop\n    /* \"Campaign.sol\":1318:1325  minimum */\n  dup2\n    /* \"Campaign.sol\":1296:1315  minimumContribution */\n  0x02\n    /* \"Campaign.sol\":1296:1325  minimumContribution = minimum */\n  dup2\n  swap1\n  sstore\n  pop\n    /* \"Campaign.sol\":1216:1350  constructor(uint minimum, address creator) {... */\n  pop\n  pop\n    /* \"Campaign.sol\":481:3331  contract Campaign {... */\n  jump(tag_6)\n    /* \"#utility.yul\":88:205   */\ntag_8:\n    /* \"#utility.yul\":197:198   */\n  0x00\n    /* \"#utility.yul\":194:195   */\n  dup1\n    /* \"#utility.yul\":187:199   */\n  revert\n    /* \"#utility.yul\":334:411   */\ntag_10:\n    /* \"#utility.yul\":371:378   */\n  0x00\n    /* \"#utility.yul\":400:405   */\n  dup2\n    /* \"#utility.yul\":389:405   */\n  swap1\n  pop\n    /* \"#utility.yul\":334:411   */\n  swap2\n  swap1\n  pop\n  jump\t// out\n    /* \"#utility.yul\":417:539   */\ntag_11:\n    /* \"#utility.yul\":490:514   */\n  tag_23\n    /* \"#utility.yul\":508:513   */\n  dup2\n    /* \"#utility.yul\":490:514   */\n  tag_10\n  jump\t// in\ntag_23:\n    /* \"#utility.yul\":483:488   */\n  dup2\n    /* \"#utility.yul\":480:515   */\n  eq\n    /* \"#utility.yul\":470:533   */\n  tag_24\n  jumpi\n    /* \"#utility.yul\":529:530   */\n  0x00\n    /* \"#utility.yul\":526:527   */\n  dup1\n    /* \"#utility.yul\":519:531   */\n  revert\n    /* \"#utility.yul\":470:533   */\ntag_24:\n    /* \"#utility.yul\":417:539   */\n  pop\n  jump\t// out\n    /* \"#utility.yul\":545:688   */\ntag_12:\n    /* \"#utility.yul\":602:607   */\n  0x00\n    /* \"#utility.yul\":633:639   */\n  dup2\n    /* \"#utility.yul\":627:640   */\n  mload\n    /* \"#utility.yul\":618:640   */\n  swap1\n  pop\n    /* \"#utility.yul\":649:682   */\n  tag_26\n    /* \"#utility.yul\":676:681   */\n  dup2\n    /* \"#utility.yul\":649:682   */\n  tag_11\n  jump\t// in\ntag_26:\n    /* \"#utility.yul\":545:688   */\n  swap3\n  swap2\n  pop\n  pop\n  jump\t// out\n    /* \"#utility.yul\":694:820   */\ntag_13:\n    /* \"#utility.yul\":731:738   */\n  0x00\n    /* \"#utility.yul\":771:813   */\n  0xffffffffffffffffffffffffffffffffffffffff\n    /* \"#utility.yul\":764:769   */\n  dup3\n    /* \"#utility.yul\":760:814   */\n  and\n    /* \"#utility.yul\":749:814   */\n  swap1\n  pop\n    /* \"#utility.yul\":694:820   */\n  swap2\n  swap1\n  pop\n  jump\t// out\n    /* \"#utility.yul\":826:922   */\ntag_14:\n    /* \"#utility.yul\":863:870   */\n  0x00\n    /* \"#utility.yul\":892:916   */\n  tag_29\n    /* \"#utility.yul\":910:915   */\n  dup3\n    /* \"#utility.yul\":892:916   */\n  tag_13\n  jump\t// in\ntag_29:\n    /* \"#utility.yul\":881:916   */\n  swap1\n  pop\n    /* \"#utility.yul\":826:922   */\n  swap2\n  swap1\n  pop\n  jump\t// out\n    /* \"#utility.yul\":928:1050   */\ntag_15:\n    /* \"#utility.yul\":1001:1025   */\n  tag_31\n    /* \"#utility.yul\":1019:1024   */\n  dup2\n    /* \"#utility.yul\":1001:1025   */\n  tag_14\n  jump\t// in\ntag_31:\n    /* \"#utility.yul\":994:999   */\n  dup2\n    /* \"#utility.yul\":991:1026   */\n  eq\n    /* \"#utility.yul\":981:1044   */\n  tag_32\n  jumpi\n    /* \"#utility.yul\":1040:1041   */\n  0x00\n    /* \"#utility.yul\":1037:1038   */\n  dup1\n    /* \"#utility.yul\":1030:1042   */\n  revert\n    /* \"#utility.yul\":981:1044   */\ntag_32:\n    /* \"#utility.yul\":928:1050   */\n  pop\n  jump\t// out\n    /* \"#utility.yul\":1056:1199   */\ntag_16:\n    /* \"#utility.yul\":1113:1118   */\n  0x00\n    /* \"#utility.yul\":1144:1150   */\n  dup2\n    /* \"#utility.yul\":1138:1151   */\n  mload\n    /* \"#utility.yul\":1129:1151   */\n  swap1\n  pop\n    /* \"#utility.yul\":1160:1193   */\n  tag_34\n    /* \"#utility.yul\":1187:1192   */\n  dup2\n    /* \"#utility.yul\":1160:1193   */\n  tag_15\n  jump\t// in\ntag_34:\n    /* \"#utility.yul\":1056:1199   */\n  swap3\n  swap2\n  pop\n  pop\n  jump\t// out\n    /* \"#utility.yul\":1205:1712   */\ntag_3:\n    /* \"#utility.yul\":1284:1290   */\n  0x00\n    /* \"#utility.yul\":1292:1298   */\n  dup1\n    /* \"#utility.yul\":1341:1343   */\n  0x40\n    /* \"#utility.yul\":1329:1338   */\n  dup4\n    /* \"#utility.yul\":1320:1327   */\n  dup6\n    /* \"#utility.yul\":1316:1339   */\n  sub\n    /* \"#utility.yul\":1312:1344   */\n  slt\n    /* \"#utility.yul\":1309:1428   */\n  iszero\n  tag_36\n  jumpi\n    /* \"#utility.yul\":1347:1426   */\n  tag_37\n  tag_8\n  jump\t// in\ntag_37:\n    /* \"#utility.yul\":1309:1428   */\ntag_36:\n    /* \"#utility.yul\":1467:1468   */\n  0x00\n    /* \"#utility.yul\":1492:1556   */\n  tag_38\n    /* \"#utility.yul\":1548:1555   */\n  dup6\n    /* \"#utility.yul\":1539:1545   */\n  dup3\n    /* \"#utility.yul\":1528:1537   */\n  dup7\n    /* \"#utility.yul\":1524:1546   */\n  add\n    /* \"#utility.yul\":1492:1556   */\n  tag_12\n  jump\t// in\ntag_38:\n    /* \"#utility.yul\":1482:1556   */\n  swap3\n  pop\n    /* \"#utility.yul\":1438:1566   */\n  pop\n    /* \"#utility.yul\":1605:1607   */\n  0x20\n    /* \"#utility.yul\":1631:1695   */\n  tag_39\n    /* \"#utility.yul\":1687:1694   */\n  dup6\n    /* \"#utility.yul\":1678:1684   */\n  dup3\n    /* \"#utility.yul\":1667:1676   */\n  dup7\n    /* \"#utility.yul\":1663:1685   */\n  add\n    /* \"#utility.yul\":1631:1695   */\n  tag_16\n  jump\t// in\ntag_39:\n    /* \"#utility.yul\":1621:1695   */\n  swap2\n  pop\n    /* \"#utility.yul\":1576:1705   */\n  pop\n    /* \"#utility.yul\":1205:1712   */\n  swap3\n  pop\n  swap3\n  swap1\n  pop\n  jump\t// out\n    /* \"Campaign.sol\":481:3331  contract Campaign {... */\ntag_6:\n  dataSize(sub_0)\n  dup1\n  dataOffset(sub_0)\n  0x00\n  codecopy\n  0x00\n  return\nstop\n\nsub_0: assembly {\n        /* \"Campaign.sol\":481:3331  contract Campaign {... */\n      mstore(0x40, 0x80)\n      jumpi(tag_1, lt(calldatasize, 0x04))\n      shr(0xe0, calldataload(0x00))\n      dup1\n      0x8a9cfd55\n      gt\n      tag_15\n      jumpi\n      dup1\n      0xd7d1bbdb\n      gt\n      tag_16\n      jumpi\n      dup1\n      0xd7d1bbdb\n      eq\n      tag_11\n      jumpi\n      dup1\n      0xe7b668b4\n      eq\n      tag_12\n      jumpi\n      dup1\n      0xf6b4dfb4\n      eq\n      tag_13\n      jumpi\n      dup1\n      0xfbfa4b7f\n      eq\n      tag_14\n      jumpi\n      jump(tag_1)\n    tag_16:\n      dup1\n      0x8a9cfd55\n      eq\n      tag_8\n      jumpi\n      dup1\n      0x937e09b1\n      eq\n      tag_9\n      jumpi\n      dup1\n      0xd7bb99ba\n      eq\n      tag_10\n      jumpi\n      jump(tag_1)\n    tag_15:\n      dup1\n      0x0a144391\n      eq\n      tag_2\n      jumpi\n      dup1\n      0x3410452a\n      eq\n      tag_3\n      jumpi\n      dup1\n      0x4051ddac\n      eq\n      tag_4\n      jumpi\n      dup1\n      0x481c6a75\n      eq\n      tag_5\n      jumpi\n      dup1\n      0x81d12c58\n      eq\n      tag_6\n      jumpi\n      dup1\n      0x82fde093\n      eq\n      tag_7\n      jumpi\n    tag_1:\n      0x00\n      dup1\n      revert\n        /* \"Campaign.sol\":932:973  mapping(address => bool) public approvers */\n    tag_2:\n      callvalue\n      dup1\n      iszero\n      tag_17\n      jumpi\n      0x00\n      dup1\n      revert\n    tag_17:\n      pop\n      tag_18\n      0x04\n      dup1\n      calldatasize\n      sub\n      dup2\n      add\n      swap1\n      tag_19\n      swap2\n      swap1\n      tag_20\n      jump\t// in\n    tag_19:\n      tag_21\n      jump\t// in\n    tag_18:\n      mload(0x40)\n      tag_22\n      swap2\n      swap1\n      tag_23\n      jump\t// in\n    tag_22:\n      mload(0x40)\n      dup1\n      swap2\n      sub\n      swap1\n      return\n        /* \"Campaign.sol\":3234:3329  function getRequestsCount () public view returns (uint) {... */\n    tag_3:\n      callvalue\n      dup1\n      iszero\n      tag_24\n      jumpi\n      0x00\n      dup1\n      revert\n    tag_24:\n      pop\n      tag_25\n      tag_26\n      jump\t// in\n    tag_25:\n      mload(0x40)\n      tag_27\n      swap2\n      swap1\n      tag_28\n      jump\t// in\n    tag_27:\n      mload(0x40)\n      dup1\n      swap2\n      sub\n      swap1\n      return\n        /* \"Campaign.sol\":2969:3228  function getSummary() public view returns (uint , uint, uint, uint, address) {... */\n    tag_4:\n      callvalue\n      dup1\n      iszero\n      tag_29\n      jumpi\n      0x00\n      dup1\n      revert\n    tag_29:\n      pop\n      tag_30\n      tag_31\n      jump\t// in\n    tag_30:\n      mload(0x40)\n      tag_32\n      swap6\n      swap5\n      swap4\n      swap3\n      swap2\n      swap1\n      tag_33\n      jump\t// in\n    tag_32:\n      mload(0x40)\n      dup1\n      swap2\n      sub\n      swap1\n      return\n        /* \"Campaign.sol\":867:889  address public manager */\n    tag_5:\n      callvalue\n      dup1\n      iszero\n      tag_34\n      jumpi\n      0x00\n      dup1\n      revert\n    tag_34:\n      pop\n      tag_35\n      tag_36\n      jump\t// in\n    tag_35:\n      mload(0x40)\n      tag_37\n      swap2\n      swap1\n      tag_38\n      jump\t// in\n    tag_37:\n      mload(0x40)\n      dup1\n      swap2\n      sub\n      swap1\n      return\n        /* \"Campaign.sol\":753:778  Request[] public requests */\n    tag_6:\n      callvalue\n      dup1\n      iszero\n      tag_39\n      jumpi\n      0x00\n      dup1\n      revert\n    tag_39:\n      pop\n      tag_40\n      0x04\n      dup1\n      calldatasize\n      sub\n      dup2\n      add\n      swap1\n      tag_41\n      swap2\n      swap1\n      tag_42\n      jump\t// in\n    tag_41:\n      tag_43\n      jump\t// in\n    tag_40:\n      mload(0x40)\n      tag_44\n      swap6\n      swap5\n      swap4\n      swap3\n      swap2\n      swap1\n      tag_45\n      jump\t// in\n    tag_44:\n      mload(0x40)\n      dup1\n      swap2\n      sub\n      swap1\n      return\n        /* \"Campaign.sol\":979:1005  uint public approversCount */\n    tag_7:\n      callvalue\n      dup1\n      iszero\n      tag_46\n      jumpi\n      0x00\n      dup1\n      revert\n    tag_46:\n      pop\n      tag_47\n      tag_48\n      jump\t// in\n    tag_47:\n      mload(0x40)\n      tag_49\n      swap2\n      swap1\n      tag_28\n      jump\t// in\n    tag_49:\n      mload(0x40)\n      dup1\n      swap2\n      sub\n      swap1\n      return\n        /* \"Campaign.sol\":1842:2309  function createRequest(string memory description, uint value, address payable recipient) public restricted {... */\n    tag_8:\n      callvalue\n      dup1\n      iszero\n      tag_50\n      jumpi\n      0x00\n      dup1\n      revert\n    tag_50:\n      pop\n      tag_51\n      0x04\n      dup1\n      calldatasize\n      sub\n      dup2\n      add\n      swap1\n      tag_52\n      swap2\n      swap1\n      tag_53\n      jump\t// in\n    tag_52:\n      tag_54\n      jump\t// in\n    tag_51:\n      stop\n        /* \"Campaign.sol\":895:926  uint public minimumContribution */\n    tag_9:\n      callvalue\n      dup1\n      iszero\n      tag_55\n      jumpi\n      0x00\n      dup1\n      revert\n    tag_55:\n      pop\n      tag_56\n      tag_57\n      jump\t// in\n    tag_56:\n      mload(0x40)\n      tag_58\n      swap2\n      swap1\n      tag_28\n      jump\t// in\n    tag_58:\n      mload(0x40)\n      dup1\n      swap2\n      sub\n      swap1\n      return\n        /* \"Campaign.sol\":1373:1836  function contribute() public payable {... */\n    tag_10:\n      tag_59\n      tag_60\n      jump\t// in\n    tag_59:\n      stop\n        /* \"Campaign.sol\":2315:2659  function approveRequest(uint index) public {... */\n    tag_11:\n      callvalue\n      dup1\n      iszero\n      tag_61\n      jumpi\n      0x00\n      dup1\n      revert\n    tag_61:\n      pop\n      tag_62\n      0x04\n      dup1\n      calldatasize\n      sub\n      dup2\n      add\n      swap1\n      tag_63\n      swap2\n      swap1\n      tag_42\n      jump\t// in\n    tag_63:\n      tag_64\n      jump\t// in\n    tag_62:\n      stop\n        /* \"Campaign.sol\":2665:2963  function finaliseRequest(uint index) public restricted {... */\n    tag_12:\n      callvalue\n      dup1\n      iszero\n      tag_65\n      jumpi\n      0x00\n      dup1\n      revert\n    tag_65:\n      pop\n      tag_66\n      0x04\n      dup1\n      calldatasize\n      sub\n      dup2\n      add\n      swap1\n      tag_67\n      swap2\n      swap1\n      tag_42\n      jump\t// in\n    tag_67:\n      tag_68\n      jump\t// in\n    tag_66:\n      stop\n        /* \"Campaign.sol\":1042:1088  address public contractAddress = address(this) */\n    tag_13:\n      callvalue\n      dup1\n      iszero\n      tag_69\n      jumpi\n      0x00\n      dup1\n      revert\n    tag_69:\n      pop\n      tag_70\n      tag_71\n      jump\t// in\n    tag_70:\n      mload(0x40)\n      tag_72\n      swap2\n      swap1\n      tag_38\n      jump\t// in\n    tag_72:\n      mload(0x40)\n      dup1\n      swap2\n      sub\n      swap1\n      return\n        /* \"Campaign.sol\":1011:1036  uint public requestsCount */\n    tag_14:\n      callvalue\n      dup1\n      iszero\n      tag_73\n      jumpi\n      0x00\n      dup1\n      revert\n    tag_73:\n      pop\n      tag_74\n      tag_75\n      jump\t// in\n    tag_74:\n      mload(0x40)\n      tag_76\n      swap2\n      swap1\n      tag_28\n      jump\t// in\n    tag_76:\n      mload(0x40)\n      dup1\n      swap2\n      sub\n      swap1\n      return\n        /* \"Campaign.sol\":932:973  mapping(address => bool) public approvers */\n    tag_21:\n      mstore(0x20, 0x03)\n      dup1\n      0x00\n      mstore\n      keccak256(0x00, 0x40)\n      0x00\n      swap2\n      pop\n      sload\n      swap1\n      0x0100\n      exp\n      swap1\n      div\n      0xff\n      and\n      dup2\n      jump\t// out\n        /* \"Campaign.sol\":3234:3329  function getRequestsCount () public view returns (uint) {... */\n    tag_26:\n        /* \"Campaign.sol\":3284:3288  uint */\n      0x00\n        /* \"Campaign.sol\":3307:3315  requests */\n      dup1\n        /* \"Campaign.sol\":3307:3322  requests.length */\n      dup1\n      sload\n      swap1\n      pop\n        /* \"Campaign.sol\":3300:3322  return requests.length */\n      swap1\n      pop\n        /* \"Campaign.sol\":3234:3329  function getRequestsCount () public view returns (uint) {... */\n      swap1\n      jump\t// out\n        /* \"Campaign.sol\":2969:3228  function getSummary() public view returns (uint , uint, uint, uint, address) {... */\n    tag_31:\n        /* \"Campaign.sol\":3012:3016  uint */\n      0x00\n        /* \"Campaign.sol\":3019:3023  uint */\n      dup1\n        /* \"Campaign.sol\":3025:3029  uint */\n      0x00\n        /* \"Campaign.sol\":3031:3035  uint */\n      dup1\n        /* \"Campaign.sol\":3037:3044  address */\n      0x00\n        /* \"Campaign.sol\":3077:3096  minimumContribution */\n      sload(0x02)\n        /* \"Campaign.sol\":3110:3125  contractAddress */\n      0x06\n      0x00\n      swap1\n      sload\n      swap1\n      0x0100\n      exp\n      swap1\n      div\n      0xffffffffffffffffffffffffffffffffffffffff\n      and\n        /* \"Campaign.sol\":3110:3133  contractAddress.balance */\n      0xffffffffffffffffffffffffffffffffffffffff\n      and\n      balance\n        /* \"Campaign.sol\":3147:3155  requests */\n      0x00\n        /* \"Campaign.sol\":3147:3162  requests.length */\n      dup1\n      sload\n      swap1\n      pop\n        /* \"Campaign.sol\":3176:3190  approversCount */\n      sload(0x04)\n        /* \"Campaign.sol\":3204:3211  manager */\n      0x01\n      0x00\n      swap1\n      sload\n      swap1\n      0x0100\n      exp\n      swap1\n      div\n      0xffffffffffffffffffffffffffffffffffffffff\n      and\n        /* \"Campaign.sol\":3056:3221  return (... */\n      swap5\n      pop\n      swap5\n      pop\n      swap5\n      pop\n      swap5\n      pop\n      swap5\n      pop\n        /* \"Campaign.sol\":2969:3228  function getSummary() public view returns (uint , uint, uint, uint, address) {... */\n      swap1\n      swap2\n      swap3\n      swap4\n      swap5\n      jump\t// out\n        /* \"Campaign.sol\":867:889  address public manager */\n    tag_36:\n      0x01\n      0x00\n      swap1\n      sload\n      swap1\n      0x0100\n      exp\n      swap1\n      div\n      0xffffffffffffffffffffffffffffffffffffffff\n      and\n      dup2\n      jump\t// out\n        /* \"Campaign.sol\":753:778  Request[] public requests */\n    tag_43:\n      0x00\n      dup2\n      dup2\n      sload\n      dup2\n      lt\n      tag_79\n      jumpi\n      0x00\n      dup1\n      revert\n    tag_79:\n      swap1\n      0x00\n      mstore\n      keccak256(0x00, 0x20)\n      swap1\n      0x05\n      mul\n      add\n      0x00\n      swap2\n      pop\n      swap1\n      pop\n      dup1\n      0x00\n      add\n      dup1\n      sload\n      tag_81\n      swap1\n      tag_82\n      jump\t// in\n    tag_81:\n      dup1\n      0x1f\n      add\n      0x20\n      dup1\n      swap2\n      div\n      mul\n      0x20\n      add\n      mload(0x40)\n      swap1\n      dup2\n      add\n      0x40\n      mstore\n      dup1\n      swap3\n      swap2\n      swap1\n      dup2\n      dup2\n      mstore\n      0x20\n      add\n      dup3\n      dup1\n      sload\n      tag_83\n      swap1\n      tag_82\n      jump\t// in\n    tag_83:\n      dup1\n      iszero\n      tag_84\n      jumpi\n      dup1\n      0x1f\n      lt\n      tag_85\n      jumpi\n      0x0100\n      dup1\n      dup4\n      sload\n      div\n      mul\n      dup4\n      mstore\n      swap2\n      0x20\n      add\n      swap2\n      jump(tag_84)\n    tag_85:\n      dup3\n      add\n      swap2\n      swap1\n      0x00\n      mstore\n      keccak256(0x00, 0x20)\n      swap1\n    tag_86:\n      dup2\n      sload\n      dup2\n      mstore\n      swap1\n      0x01\n      add\n      swap1\n      0x20\n      add\n      dup1\n      dup4\n      gt\n      tag_86\n      jumpi\n      dup3\n      swap1\n      sub\n      0x1f\n      and\n      dup3\n      add\n      swap2\n    tag_84:\n      pop\n      pop\n      pop\n      pop\n      pop\n      swap1\n      dup1\n      0x01\n      add\n      sload\n      swap1\n      dup1\n      0x02\n      add\n      0x00\n      swap1\n      sload\n      swap1\n      0x0100\n      exp\n      swap1\n      div\n      0xffffffffffffffffffffffffffffffffffffffff\n      and\n      swap1\n      dup1\n      0x02\n      add\n      0x14\n      swap1\n      sload\n      swap1\n      0x0100\n      exp\n      swap1\n      div\n      0xff\n      and\n      swap1\n      dup1\n      0x03\n      add\n      sload\n      swap1\n      pop\n      dup6\n      jump\t// out\n        /* \"Campaign.sol\":979:1005  uint public approversCount */\n    tag_48:\n      sload(0x04)\n      dup2\n      jump\t// out\n        /* \"Campaign.sol\":1842:2309  function createRequest(string memory description, uint value, address payable recipient) public restricted {... */\n    tag_54:\n        /* \"Campaign.sol\":1165:1172  manager */\n      0x01\n      0x00\n      swap1\n      sload\n      swap1\n      0x0100\n      exp\n      swap1\n      div\n      0xffffffffffffffffffffffffffffffffffffffff\n      and\n        /* \"Campaign.sol\":1151:1172  msg.sender == manager */\n      0xffffffffffffffffffffffffffffffffffffffff\n      and\n        /* \"Campaign.sol\":1151:1161  msg.sender */\n      caller\n        /* \"Campaign.sol\":1151:1172  msg.sender == manager */\n      0xffffffffffffffffffffffffffffffffffffffff\n      and\n      eq\n        /* \"Campaign.sol\":1143:1173  require(msg.sender == manager) */\n      tag_88\n      jumpi\n      0x00\n      dup1\n      revert\n    tag_88:\n        /* \"Campaign.sol\":1959:1985  Request storage newRequest */\n      0x00\n        /* \"Campaign.sol\":1988:1996  requests */\n      dup1\n        /* \"Campaign.sol\":1988:2003  requests.push() */\n      0x01\n      dup2\n      0x01\n      dup2\n      sload\n      add\n      dup1\n      dup3\n      sstore\n      dup1\n      swap2\n      pop\n      pop\n      sub\n      swap1\n      0x00\n      mstore\n      keccak256(0x00, 0x20)\n      swap1\n      0x05\n      mul\n      add\n        /* \"Campaign.sol\":1959:2003  Request storage newRequest = requests.push() */\n      swap1\n      pop\n        /* \"Campaign.sol\":2114:2125  description */\n      dup4\n        /* \"Campaign.sol\":2089:2099  newRequest */\n      dup2\n        /* \"Campaign.sol\":2089:2111  newRequest.description */\n      0x00\n      add\n        /* \"Campaign.sol\":2089:2125  newRequest.description = description */\n      swap1\n      dup2\n      tag_91\n      swap2\n      swap1\n      tag_92\n      jump\t// in\n    tag_91:\n      pop\n        /* \"Campaign.sol\":2154:2159  value */\n      dup3\n        /* \"Campaign.sol\":2135:2145  newRequest */\n      dup2\n        /* \"Campaign.sol\":2135:2151  newRequest.value */\n      0x01\n      add\n        /* \"Campaign.sol\":2135:2159  newRequest.value = value */\n      dup2\n      swap1\n      sstore\n      pop\n        /* \"Campaign.sol\":2192:2201  recipient */\n      dup2\n        /* \"Campaign.sol\":2169:2179  newRequest */\n      dup2\n        /* \"Campaign.sol\":2169:2189  newRequest.recipient */\n      0x02\n      add\n      0x00\n        /* \"Campaign.sol\":2169:2201  newRequest.recipient = recipient */\n      0x0100\n      exp\n      dup2\n      sload\n      dup2\n      0xffffffffffffffffffffffffffffffffffffffff\n      mul\n      not\n      and\n      swap1\n      dup4\n      0xffffffffffffffffffffffffffffffffffffffff\n      and\n      mul\n      or\n      swap1\n      sstore\n      pop\n        /* \"Campaign.sol\":2233:2238  false */\n      0x00\n        /* \"Campaign.sol\":2211:2221  newRequest */\n      dup2\n        /* \"Campaign.sol\":2211:2230  newRequest.complete */\n      0x02\n      add\n      0x14\n        /* \"Campaign.sol\":2211:2238  newRequest.complete = false */\n      0x0100\n      exp\n      dup2\n      sload\n      dup2\n      0xff\n      mul\n      not\n      and\n      swap1\n      dup4\n      iszero\n      iszero\n      mul\n      or\n      swap1\n      sstore\n      pop\n        /* \"Campaign.sol\":2275:2276  0 */\n      0x00\n        /* \"Campaign.sol\":2248:2258  newRequest */\n      dup2\n        /* \"Campaign.sol\":2248:2272  newRequest.approvalCount */\n      0x03\n      add\n        /* \"Campaign.sol\":2248:2276  newRequest.approvalCount = 0 */\n      dup2\n      swap1\n      sstore\n      pop\n        /* \"Campaign.sol\":2287:2300  requestsCount */\n      0x05\n      0x00\n        /* \"Campaign.sol\":2287:2302  requestsCount++ */\n      dup2\n      sload\n      dup1\n      swap3\n      swap2\n      swap1\n      tag_93\n      swap1\n      tag_94\n      jump\t// in\n    tag_93:\n      swap2\n      swap1\n      pop\n      sstore\n      pop\n        /* \"Campaign.sol\":1949:2309  {... */\n      pop\n        /* \"Campaign.sol\":1842:2309  function createRequest(string memory description, uint value, address payable recipient) public restricted {... */\n      pop\n      pop\n      pop\n      jump\t// out\n        /* \"Campaign.sol\":895:926  uint public minimumContribution */\n    tag_57:\n      sload(0x02)\n      dup2\n      jump\t// out\n        /* \"Campaign.sol\":1373:1836  function contribute() public payable {... */\n    tag_60:\n        /* \"Campaign.sol\":1504:1523  minimumContribution */\n      sload(0x02)\n        /* \"Campaign.sol\":1492:1501  msg.value */\n      callvalue\n        /* \"Campaign.sol\":1492:1523  msg.value > minimumContribution */\n      gt\n        /* \"Campaign.sol\":1484:1524  require(msg.value > minimumContribution) */\n      tag_96\n      jumpi\n      0x00\n      dup1\n      revert\n    tag_96:\n        /* \"Campaign.sol\":1558:1562  true */\n      0x01\n        /* \"Campaign.sol\":1534:1543  approvers */\n      0x03\n        /* \"Campaign.sol\":1534:1555  approvers[msg.sender] */\n      0x00\n        /* \"Campaign.sol\":1544:1554  msg.sender */\n      caller\n        /* \"Campaign.sol\":1534:1555  approvers[msg.sender] */\n      0xffffffffffffffffffffffffffffffffffffffff\n      and\n      0xffffffffffffffffffffffffffffffffffffffff\n      and\n      dup2\n      mstore\n      0x20\n      add\n      swap1\n      dup2\n      mstore\n      0x20\n      add\n      0x00\n      keccak256\n      0x00\n        /* \"Campaign.sol\":1534:1562  approvers[msg.sender] = true */\n      0x0100\n      exp\n      dup2\n      sload\n      dup2\n      0xff\n      mul\n      not\n      and\n      swap1\n      dup4\n      iszero\n      iszero\n      mul\n      or\n      swap1\n      sstore\n      pop\n        /* \"Campaign.sol\":1813:1827  approversCount */\n      0x04\n      0x00\n        /* \"Campaign.sol\":1813:1829  approversCount++ */\n      dup2\n      sload\n      dup1\n      swap3\n      swap2\n      swap1\n      tag_97\n      swap1\n      tag_94\n      jump\t// in\n    tag_97:\n      swap2\n      swap1\n      pop\n      sstore\n      pop\n        /* \"Campaign.sol\":1373:1836  function contribute() public payable {... */\n      jump\t// out\n        /* \"Campaign.sol\":2315:2659  function approveRequest(uint index) public {... */\n    tag_64:\n        /* \"Campaign.sol\":2368:2391  Request storage request */\n      0x00\n        /* \"Campaign.sol\":2394:2402  requests */\n      dup1\n        /* \"Campaign.sol\":2403:2408  index */\n      dup3\n        /* \"Campaign.sol\":2394:2409  requests[index] */\n      dup2\n      sload\n      dup2\n      lt\n      tag_99\n      jumpi\n      tag_100\n      tag_101\n      jump\t// in\n    tag_100:\n    tag_99:\n      swap1\n      0x00\n      mstore\n      keccak256(0x00, 0x20)\n      swap1\n      0x05\n      mul\n      add\n        /* \"Campaign.sol\":2368:2409  Request storage request = requests[index] */\n      swap1\n      pop\n        /* \"Campaign.sol\":2428:2437  approvers */\n      0x03\n        /* \"Campaign.sol\":2428:2449  approvers[msg.sender] */\n      0x00\n        /* \"Campaign.sol\":2438:2448  msg.sender */\n      caller\n        /* \"Campaign.sol\":2428:2449  approvers[msg.sender] */\n      0xffffffffffffffffffffffffffffffffffffffff\n      and\n      0xffffffffffffffffffffffffffffffffffffffff\n      and\n      dup2\n      mstore\n      0x20\n      add\n      swap1\n      dup2\n      mstore\n      0x20\n      add\n      0x00\n      keccak256\n      0x00\n      swap1\n      sload\n      swap1\n      0x0100\n      exp\n      swap1\n      div\n      0xff\n      and\n        /* \"Campaign.sol\":2420:2450  require(approvers[msg.sender]) */\n      tag_103\n      jumpi\n      0x00\n      dup1\n      revert\n    tag_103:\n        /* \"Campaign.sol\":2469:2476  request */\n      dup1\n        /* \"Campaign.sol\":2469:2486  request.approvals */\n      0x04\n      add\n        /* \"Campaign.sol\":2469:2498  request.approvals[msg.sender] */\n      0x00\n        /* \"Campaign.sol\":2487:2497  msg.sender */\n      caller\n        /* \"Campaign.sol\":2469:2498  request.approvals[msg.sender] */\n      0xffffffffffffffffffffffffffffffffffffffff\n      and\n      0xffffffffffffffffffffffffffffffffffffffff\n      and\n      dup2\n      mstore\n      0x20\n      add\n      swap1\n      dup2\n      mstore\n      0x20\n      add\n      0x00\n      keccak256\n      0x00\n      swap1\n      sload\n      swap1\n      0x0100\n      exp\n      swap1\n      div\n      0xff\n      and\n        /* \"Campaign.sol\":2468:2498  !request.approvals[msg.sender] */\n      iszero\n        /* \"Campaign.sol\":2460:2499  require(!request.approvals[msg.sender]) */\n      tag_104\n      jumpi\n      0x00\n      dup1\n      revert\n    tag_104:\n        /* \"Campaign.sol\":2615:2619  true */\n      0x01\n        /* \"Campaign.sol\":2583:2590  request */\n      dup2\n        /* \"Campaign.sol\":2583:2600  request.approvals */\n      0x04\n      add\n        /* \"Campaign.sol\":2583:2612  request.approvals[msg.sender] */\n      0x00\n        /* \"Campaign.sol\":2601:2611  msg.sender */\n      caller\n        /* \"Campaign.sol\":2583:2612  request.approvals[msg.sender] */\n      0xffffffffffffffffffffffffffffffffffffffff\n      and\n      0xffffffffffffffffffffffffffffffffffffffff\n      and\n      dup2\n      mstore\n      0x20\n      add\n      swap1\n      dup2\n      mstore\n      0x20\n      add\n      0x00\n      keccak256\n      0x00\n        /* \"Campaign.sol\":2583:2619  request.approvals[msg.sender] = true */\n      0x0100\n      exp\n      dup2\n      sload\n      dup2\n      0xff\n      mul\n      not\n      and\n      swap1\n      dup4\n      iszero\n      iszero\n      mul\n      or\n      swap1\n      sstore\n      pop\n        /* \"Campaign.sol\":2629:2636  request */\n      dup1\n        /* \"Campaign.sol\":2629:2650  request.approvalCount */\n      0x03\n      add\n      0x00\n        /* \"Campaign.sol\":2629:2652  request.approvalCount++ */\n      dup2\n      sload\n      dup1\n      swap3\n      swap2\n      swap1\n      tag_105\n      swap1\n      tag_94\n      jump\t// in\n    tag_105:\n      swap2\n      swap1\n      pop\n      sstore\n      pop\n        /* \"Campaign.sol\":2358:2659  {... */\n      pop\n        /* \"Campaign.sol\":2315:2659  function approveRequest(uint index) public {... */\n      pop\n      jump\t// out\n        /* \"Campaign.sol\":2665:2963  function finaliseRequest(uint index) public restricted {... */\n    tag_68:\n        /* \"Campaign.sol\":1165:1172  manager */\n      0x01\n      0x00\n      swap1\n      sload\n      swap1\n      0x0100\n      exp\n      swap1\n      div\n      0xffffffffffffffffffffffffffffffffffffffff\n      and\n        /* \"Campaign.sol\":1151:1172  msg.sender == manager */\n      0xffffffffffffffffffffffffffffffffffffffff\n      and\n        /* \"Campaign.sol\":1151:1161  msg.sender */\n      caller\n        /* \"Campaign.sol\":1151:1172  msg.sender == manager */\n      0xffffffffffffffffffffffffffffffffffffffff\n      and\n      eq\n        /* \"Campaign.sol\":1143:1173  require(msg.sender == manager) */\n      tag_107\n      jumpi\n      0x00\n      dup1\n      revert\n    tag_107:\n        /* \"Campaign.sol\":2730:2753  Request storage request */\n      0x00\n        /* \"Campaign.sol\":2756:2764  requests */\n      dup1\n        /* \"Campaign.sol\":2765:2770  index */\n      dup3\n        /* \"Campaign.sol\":2756:2771  requests[index] */\n      dup2\n      sload\n      dup2\n      lt\n      tag_109\n      jumpi\n      tag_110\n      tag_101\n      jump\t// in\n    tag_110:\n    tag_109:\n      swap1\n      0x00\n      mstore\n      keccak256(0x00, 0x20)\n      swap1\n      0x05\n      mul\n      add\n        /* \"Campaign.sol\":2730:2771  Request storage request = requests[index] */\n      swap1\n      pop\n        /* \"Campaign.sol\":2832:2833  2 */\n      0x02\n        /* \"Campaign.sol\":2815:2829  approversCount */\n      sload(0x04)\n        /* \"Campaign.sol\":2815:2833  approversCount / 2 */\n      tag_112\n      swap2\n      swap1\n      tag_113\n      jump\t// in\n    tag_112:\n        /* \"Campaign.sol\":2790:2797  request */\n      dup2\n        /* \"Campaign.sol\":2790:2811  request.approvalCount */\n      0x03\n      add\n      sload\n        /* \"Campaign.sol\":2790:2834  request.approvalCount > (approversCount / 2) */\n      gt\n        /* \"Campaign.sol\":2782:2835  require(request.approvalCount > (approversCount / 2)) */\n      tag_114\n      jumpi\n      0x00\n      dup1\n      revert\n    tag_114:\n        /* \"Campaign.sol\":2854:2861  request */\n      dup1\n        /* \"Campaign.sol\":2854:2870  request.complete */\n      0x02\n      add\n      0x14\n      swap1\n      sload\n      swap1\n      0x0100\n      exp\n      swap1\n      div\n      0xff\n      and\n        /* \"Campaign.sol\":2853:2870  !request.complete */\n      iszero\n        /* \"Campaign.sol\":2845:2871  require(!request.complete) */\n      tag_115\n      jumpi\n      0x00\n      dup1\n      revert\n    tag_115:\n        /* \"Campaign.sol\":2882:2889  request */\n      dup1\n        /* \"Campaign.sol\":2882:2899  request.recipient */\n      0x02\n      add\n      0x00\n      swap1\n      sload\n      swap1\n      0x0100\n      exp\n      swap1\n      div\n      0xffffffffffffffffffffffffffffffffffffffff\n      and\n        /* \"Campaign.sol\":2882:2908  request.recipient.transfer */\n      0xffffffffffffffffffffffffffffffffffffffff\n      and\n        /* \"Campaign.sol\":2882:2923  request.recipient.transfer(request.value) */\n      0x08fc\n        /* \"Campaign.sol\":2909:2916  request */\n      dup3\n        /* \"Campaign.sol\":2909:2922  request.value */\n      0x01\n      add\n      sload\n        /* \"Campaign.sol\":2882:2923  request.recipient.transfer(request.value) */\n      swap1\n      dup2\n      iszero\n      mul\n      swap1\n      mload(0x40)\n      0x00\n      mload(0x40)\n      dup1\n      dup4\n      sub\n      dup2\n      dup6\n      dup9\n      dup9\n      call\n      swap4\n      pop\n      pop\n      pop\n      pop\n      iszero\n      dup1\n      iszero\n      tag_117\n      jumpi\n      returndatasize\n      0x00\n      dup1\n      returndatacopy\n      revert(0x00, returndatasize)\n    tag_117:\n      pop\n        /* \"Campaign.sol\":2952:2956  true */\n      0x01\n        /* \"Campaign.sol\":2933:2940  request */\n      dup2\n        /* \"Campaign.sol\":2933:2949  request.complete */\n      0x02\n      add\n      0x14\n        /* \"Campaign.sol\":2933:2956  request.complete = true */\n      0x0100\n      exp\n      dup2\n      sload\n      dup2\n      0xff\n      mul\n      not\n      and\n      swap1\n      dup4\n      iszero\n      iszero\n      mul\n      or\n      swap1\n      sstore\n      pop\n        /* \"Campaign.sol\":2720:2963  {... */\n      pop\n        /* \"Campaign.sol\":2665:2963  function finaliseRequest(uint index) public restricted {... */\n      pop\n      jump\t// out\n        /* \"Campaign.sol\":1042:1088  address public contractAddress = address(this) */\n    tag_71:\n      0x06\n      0x00\n      swap1\n      sload\n      swap1\n      0x0100\n      exp\n      swap1\n      div\n      0xffffffffffffffffffffffffffffffffffffffff\n      and\n      dup2\n      jump\t// out\n        /* \"Campaign.sol\":1011:1036  uint public requestsCount */\n    tag_75:\n      sload(0x05)\n      dup2\n      jump\t// out\n        /* \"#utility.yul\":7:82   */\n    tag_118:\n        /* \"#utility.yul\":40:46   */\n      0x00\n        /* \"#utility.yul\":73:75   */\n      0x40\n        /* \"#utility.yul\":67:76   */\n      mload\n        /* \"#utility.yul\":57:76   */\n      swap1\n      pop\n        /* \"#utility.yul\":7:82   */\n      swap1\n      jump\t// out\n        /* \"#utility.yul\":88:205   */\n    tag_119:\n        /* \"#utility.yul\":197:198   */\n      0x00\n        /* \"#utility.yul\":194:195   */\n      dup1\n        /* \"#utility.yul\":187:199   */\n      revert\n        /* \"#utility.yul\":211:328   */\n    tag_120:\n        /* \"#utility.yul\":320:321   */\n      0x00\n        /* \"#utility.yul\":317:318   */\n      dup1\n        /* \"#utility.yul\":310:322   */\n      revert\n        /* \"#utility.yul\":334:460   */\n    tag_121:\n        /* \"#utility.yul\":371:378   */\n      0x00\n        /* \"#utility.yul\":411:453   */\n      0xffffffffffffffffffffffffffffffffffffffff\n        /* \"#utility.yul\":404:409   */\n      dup3\n        /* \"#utility.yul\":400:454   */\n      and\n        /* \"#utility.yul\":389:454   */\n      swap1\n      pop\n        /* \"#utility.yul\":334:460   */\n      swap2\n      swap1\n      pop\n      jump\t// out\n        /* \"#utility.yul\":466:562   */\n    tag_122:\n        /* \"#utility.yul\":503:510   */\n      0x00\n        /* \"#utility.yul\":532:556   */\n      tag_174\n        /* \"#utility.yul\":550:555   */\n      dup3\n        /* \"#utility.yul\":532:556   */\n      tag_121\n      jump\t// in\n    tag_174:\n        /* \"#utility.yul\":521:556   */\n      swap1\n      pop\n        /* \"#utility.yul\":466:562   */\n      swap2\n      swap1\n      pop\n      jump\t// out\n        /* \"#utility.yul\":568:690   */\n    tag_123:\n        /* \"#utility.yul\":641:665   */\n      tag_176\n        /* \"#utility.yul\":659:664   */\n      dup2\n        /* \"#utility.yul\":641:665   */\n      tag_122\n      jump\t// in\n    tag_176:\n        /* \"#utility.yul\":634:639   */\n      dup2\n        /* \"#utility.yul\":631:666   */\n      eq\n        /* \"#utility.yul\":621:684   */\n      tag_177\n      jumpi\n        /* \"#utility.yul\":680:681   */\n      0x00\n        /* \"#utility.yul\":677:678   */\n      dup1\n        /* \"#utility.yul\":670:682   */\n      revert\n        /* \"#utility.yul\":621:684   */\n    tag_177:\n        /* \"#utility.yul\":568:690   */\n      pop\n      jump\t// out\n        /* \"#utility.yul\":696:835   */\n    tag_124:\n        /* \"#utility.yul\":742:747   */\n      0x00\n        /* \"#utility.yul\":780:786   */\n      dup2\n        /* \"#utility.yul\":767:787   */\n      calldataload\n        /* \"#utility.yul\":758:787   */\n      swap1\n      pop\n        /* \"#utility.yul\":796:829   */\n      tag_179\n        /* \"#utility.yul\":823:828   */\n      dup2\n        /* \"#utility.yul\":796:829   */\n      tag_123\n      jump\t// in\n    tag_179:\n        /* \"#utility.yul\":696:835   */\n      swap3\n      swap2\n      pop\n      pop\n      jump\t// out\n        /* \"#utility.yul\":841:1170   */\n    tag_20:\n        /* \"#utility.yul\":900:906   */\n      0x00\n        /* \"#utility.yul\":949:951   */\n      0x20\n        /* \"#utility.yul\":937:946   */\n      dup3\n        /* \"#utility.yul\":928:935   */\n      dup5\n        /* \"#utility.yul\":924:947   */\n      sub\n        /* \"#utility.yul\":920:952   */\n      slt\n        /* \"#utility.yul\":917:1036   */\n      iszero\n      tag_181\n      jumpi\n        /* \"#utility.yul\":955:1034   */\n      tag_182\n      tag_119\n      jump\t// in\n    tag_182:\n        /* \"#utility.yul\":917:1036   */\n    tag_181:\n        /* \"#utility.yul\":1075:1076   */\n      0x00\n        /* \"#utility.yul\":1100:1153   */\n      tag_183\n        /* \"#utility.yul\":1145:1152   */\n      dup5\n        /* \"#utility.yul\":1136:1142   */\n      dup3\n        /* \"#utility.yul\":1125:1134   */\n      dup6\n        /* \"#utility.yul\":1121:1143   */\n      add\n        /* \"#utility.yul\":1100:1153   */\n      tag_124\n      jump\t// in\n    tag_183:\n        /* \"#utility.yul\":1090:1153   */\n      swap2\n      pop\n        /* \"#utility.yul\":1046:1163   */\n      pop\n        /* \"#utility.yul\":841:1170   */\n      swap3\n      swap2\n      pop\n      pop\n      jump\t// out\n        /* \"#utility.yul\":1176:1266   */\n    tag_125:\n        /* \"#utility.yul\":1210:1217   */\n      0x00\n        /* \"#utility.yul\":1253:1258   */\n      dup2\n        /* \"#utility.yul\":1246:1259   */\n      iszero\n        /* \"#utility.yul\":1239:1260   */\n      iszero\n        /* \"#utility.yul\":1228:1260   */\n      swap1\n      pop\n        /* \"#utility.yul\":1176:1266   */\n      swap2\n      swap1\n      pop\n      jump\t// out\n        /* \"#utility.yul\":1272:1381   */\n    tag_126:\n        /* \"#utility.yul\":1353:1374   */\n      tag_186\n        /* \"#utility.yul\":1368:1373   */\n      dup2\n        /* \"#utility.yul\":1353:1374   */\n      tag_125\n      jump\t// in\n    tag_186:\n        /* \"#utility.yul\":1348:1351   */\n      dup3\n        /* \"#utility.yul\":1341:1375   */\n      mstore\n        /* \"#utility.yul\":1272:1381   */\n      pop\n      pop\n      jump\t// out\n        /* \"#utility.yul\":1387:1597   */\n    tag_23:\n        /* \"#utility.yul\":1474:1478   */\n      0x00\n        /* \"#utility.yul\":1512:1514   */\n      0x20\n        /* \"#utility.yul\":1501:1510   */\n      dup3\n        /* \"#utility.yul\":1497:1515   */\n      add\n        /* \"#utility.yul\":1489:1515   */\n      swap1\n      pop\n        /* \"#utility.yul\":1525:1590   */\n      tag_188\n        /* \"#utility.yul\":1587:1588   */\n      0x00\n        /* \"#utility.yul\":1576:1585   */\n      dup4\n        /* \"#utility.yul\":1572:1589   */\n      add\n        /* \"#utility.yul\":1563:1569   */\n      dup5\n        /* \"#utility.yul\":1525:1590   */\n      tag_126\n      jump\t// in\n    tag_188:\n        /* \"#utility.yul\":1387:1597   */\n      swap3\n      swap2\n      pop\n      pop\n      jump\t// out\n        /* \"#utility.yul\":1603:1680   */\n    tag_127:\n        /* \"#utility.yul\":1640:1647   */\n      0x00\n        /* \"#utility.yul\":1669:1674   */\n      dup2\n        /* \"#utility.yul\":1658:1674   */\n      swap1\n      pop\n        /* \"#utility.yul\":1603:1680   */\n      swap2\n      swap1\n      pop\n      jump\t// out\n        /* \"#utility.yul\":1686:1804   */\n    tag_128:\n        /* \"#utility.yul\":1773:1797   */\n      tag_191\n        /* \"#utility.yul\":1791:1796   */\n      dup2\n        /* \"#utility.yul\":1773:1797   */\n      tag_127\n      jump\t// in\n    tag_191:\n        /* \"#utility.yul\":1768:1771   */\n      dup3\n        /* \"#utility.yul\":1761:1798   */\n      mstore\n        /* \"#utility.yul\":1686:1804   */\n      pop\n      pop\n      jump\t// out\n        /* \"#utility.yul\":1810:2032   */\n    tag_28:\n        /* \"#utility.yul\":1903:1907   */\n      0x00\n        /* \"#utility.yul\":1941:1943   */\n      0x20\n        /* \"#utility.yul\":1930:1939   */\n      dup3\n        /* \"#utility.yul\":1926:1944   */\n      add\n        /* \"#utility.yul\":1918:1944   */\n      swap1\n      pop\n        /* \"#utility.yul\":1954:2025   */\n      tag_193\n        /* \"#utility.yul\":2022:2023   */\n      0x00\n        /* \"#utility.yul\":2011:2020   */\n      dup4\n        /* \"#utility.yul\":2007:2024   */\n      add\n        /* \"#utility.yul\":1998:2004   */\n      dup5\n        /* \"#utility.yul\":1954:2025   */\n      tag_128\n      jump\t// in\n    tag_193:\n        /* \"#utility.yul\":1810:2032   */\n      swap3\n      swap2\n      pop\n      pop\n      jump\t// out\n        /* \"#utility.yul\":2038:2156   */\n    tag_129:\n        /* \"#utility.yul\":2125:2149   */\n      tag_195\n        /* \"#utility.yul\":2143:2148   */\n      dup2\n        /* \"#utility.yul\":2125:2149   */\n      tag_122\n      jump\t// in\n    tag_195:\n        /* \"#utility.yul\":2120:2123   */\n      dup3\n        /* \"#utility.yul\":2113:2150   */\n      mstore\n        /* \"#utility.yul\":2038:2156   */\n      pop\n      pop\n      jump\t// out\n        /* \"#utility.yul\":2162:2826   */\n    tag_33:\n        /* \"#utility.yul\":2367:2371   */\n      0x00\n        /* \"#utility.yul\":2405:2408   */\n      0xa0\n        /* \"#utility.yul\":2394:2403   */\n      dup3\n        /* \"#utility.yul\":2390:2409   */\n      add\n        /* \"#utility.yul\":2382:2409   */\n      swap1\n      pop\n        /* \"#utility.yul\":2419:2490   */\n      tag_197\n        /* \"#utility.yul\":2487:2488   */\n      0x00\n        /* \"#utility.yul\":2476:2485   */\n      dup4\n        /* \"#utility.yul\":2472:2489   */\n      add\n        /* \"#utility.yul\":2463:2469   */\n      dup9\n        /* \"#utility.yul\":2419:2490   */\n      tag_128\n      jump\t// in\n    tag_197:\n        /* \"#utility.yul\":2500:2572   */\n      tag_198\n        /* \"#utility.yul\":2568:2570   */\n      0x20\n        /* \"#utility.yul\":2557:2566   */\n      dup4\n        /* \"#utility.yul\":2553:2571   */\n      add\n        /* \"#utility.yul\":2544:2550   */\n      dup8\n        /* \"#utility.yul\":2500:2572   */\n      tag_128\n      jump\t// in\n    tag_198:\n        /* \"#utility.yul\":2582:2654   */\n      tag_199\n        /* \"#utility.yul\":2650:2652   */\n      0x40\n        /* \"#utility.yul\":2639:2648   */\n      dup4\n        /* \"#utility.yul\":2635:2653   */\n      add\n        /* \"#utility.yul\":2626:2632   */\n      dup7\n        /* \"#utility.yul\":2582:2654   */\n      tag_128\n      jump\t// in\n    tag_199:\n        /* \"#utility.yul\":2664:2736   */\n      tag_200\n        /* \"#utility.yul\":2732:2734   */\n      0x60\n        /* \"#utility.yul\":2721:2730   */\n      dup4\n        /* \"#utility.yul\":2717:2735   */\n      add\n        /* \"#utility.yul\":2708:2714   */\n      dup6\n        /* \"#utility.yul\":2664:2736   */\n      tag_128\n      jump\t// in\n    tag_200:\n        /* \"#utility.yul\":2746:2819   */\n      tag_201\n        /* \"#utility.yul\":2814:2817   */\n      0x80\n        /* \"#utility.yul\":2803:2812   */\n      dup4\n        /* \"#utility.yul\":2799:2818   */\n      add\n        /* \"#utility.yul\":2790:2796   */\n      dup5\n        /* \"#utility.yul\":2746:2819   */\n      tag_129\n      jump\t// in\n    tag_201:\n        /* \"#utility.yul\":2162:2826   */\n      swap7\n      swap6\n      pop\n      pop\n      pop\n      pop\n      pop\n      pop\n      jump\t// out\n        /* \"#utility.yul\":2832:3054   */\n    tag_38:\n        /* \"#utility.yul\":2925:2929   */\n      0x00\n        /* \"#utility.yul\":2963:2965   */\n      0x20\n        /* \"#utility.yul\":2952:2961   */\n      dup3\n        /* \"#utility.yul\":2948:2966   */\n      add\n        /* \"#utility.yul\":2940:2966   */\n      swap1\n      pop\n        /* \"#utility.yul\":2976:3047   */\n      tag_203\n        /* \"#utility.yul\":3044:3045   */\n      0x00\n        /* \"#utility.yul\":3033:3042   */\n      dup4\n        /* \"#utility.yul\":3029:3046   */\n      add\n        /* \"#utility.yul\":3020:3026   */\n      dup5\n        /* \"#utility.yul\":2976:3047   */\n      tag_129\n      jump\t// in\n    tag_203:\n        /* \"#utility.yul\":2832:3054   */\n      swap3\n      swap2\n      pop\n      pop\n      jump\t// out\n        /* \"#utility.yul\":3060:3182   */\n    tag_130:\n        /* \"#utility.yul\":3133:3157   */\n      tag_205\n        /* \"#utility.yul\":3151:3156   */\n      dup2\n        /* \"#utility.yul\":3133:3157   */\n      tag_127\n      jump\t// in\n    tag_205:\n        /* \"#utility.yul\":3126:3131   */\n      dup2\n        /* \"#utility.yul\":3123:3158   */\n      eq\n        /* \"#utility.yul\":3113:3176   */\n      tag_206\n      jumpi\n        /* \"#utility.yul\":3172:3173   */\n      0x00\n        /* \"#utility.yul\":3169:3170   */\n      dup1\n        /* \"#utility.yul\":3162:3174   */\n      revert\n        /* \"#utility.yul\":3113:3176   */\n    tag_206:\n        /* \"#utility.yul\":3060:3182   */\n      pop\n      jump\t// out\n        /* \"#utility.yul\":3188:3327   */\n    tag_131:\n        /* \"#utility.yul\":3234:3239   */\n      0x00\n        /* \"#utility.yul\":3272:3278   */\n      dup2\n        /* \"#utility.yul\":3259:3279   */\n      calldataload\n        /* \"#utility.yul\":3250:3279   */\n      swap1\n      pop\n        /* \"#utility.yul\":3288:3321   */\n      tag_208\n        /* \"#utility.yul\":3315:3320   */\n      dup2\n        /* \"#utility.yul\":3288:3321   */\n      tag_130\n      jump\t// in\n    tag_208:\n        /* \"#utility.yul\":3188:3327   */\n      swap3\n      swap2\n      pop\n      pop\n      jump\t// out\n        /* \"#utility.yul\":3333:3662   */\n    tag_42:\n        /* \"#utility.yul\":3392:3398   */\n      0x00\n        /* \"#utility.yul\":3441:3443   */\n      0x20\n        /* \"#utility.yul\":3429:3438   */\n      dup3\n        /* \"#utility.yul\":3420:3427   */\n      dup5\n        /* \"#utility.yul\":3416:3439   */\n      sub\n        /* \"#utility.yul\":3412:3444   */\n      slt\n        /* \"#utility.yul\":3409:3528   */\n      iszero\n      tag_210\n      jumpi\n        /* \"#utility.yul\":3447:3526   */\n      tag_211\n      tag_119\n      jump\t// in\n    tag_211:\n        /* \"#utility.yul\":3409:3528   */\n    tag_210:\n        /* \"#utility.yul\":3567:3568   */\n      0x00\n        /* \"#utility.yul\":3592:3645   */\n      tag_212\n        /* \"#utility.yul\":3637:3644   */\n      dup5\n        /* \"#utility.yul\":3628:3634   */\n      dup3\n        /* \"#utility.yul\":3617:3626   */\n      dup6\n        /* \"#utility.yul\":3613:3635   */\n      add\n        /* \"#utility.yul\":3592:3645   */\n      tag_131\n      jump\t// in\n    tag_212:\n        /* \"#utility.yul\":3582:3645   */\n      swap2\n      pop\n        /* \"#utility.yul\":3538:3655   */\n      pop\n        /* \"#utility.yul\":3333:3662   */\n      swap3\n      swap2\n      pop\n      pop\n      jump\t// out\n        /* \"#utility.yul\":3668:3767   */\n    tag_132:\n        /* \"#utility.yul\":3720:3726   */\n      0x00\n        /* \"#utility.yul\":3754:3759   */\n      dup2\n        /* \"#utility.yul\":3748:3760   */\n      mload\n        /* \"#utility.yul\":3738:3760   */\n      swap1\n      pop\n        /* \"#utility.yul\":3668:3767   */\n      swap2\n      swap1\n      pop\n      jump\t// out\n        /* \"#utility.yul\":3773:3942   */\n    tag_133:\n        /* \"#utility.yul\":3857:3868   */\n      0x00\n        /* \"#utility.yul\":3891:3897   */\n      dup3\n        /* \"#utility.yul\":3886:3889   */\n      dup3\n        /* \"#utility.yul\":3879:3898   */\n      mstore\n        /* \"#utility.yul\":3931:3935   */\n      0x20\n        /* \"#utility.yul\":3926:3929   */\n      dup3\n        /* \"#utility.yul\":3922:3936   */\n      add\n        /* \"#utility.yul\":3907:3936   */\n      swap1\n      pop\n        /* \"#utility.yul\":3773:3942   */\n      swap3\n      swap2\n      pop\n      pop\n      jump\t// out\n        /* \"#utility.yul\":3948:4194   */\n    tag_134:\n        /* \"#utility.yul\":4029:4030   */\n      0x00\n        /* \"#utility.yul\":4039:4152   */\n    tag_216:\n        /* \"#utility.yul\":4053:4059   */\n      dup4\n        /* \"#utility.yul\":4050:4051   */\n      dup2\n        /* \"#utility.yul\":4047:4060   */\n      lt\n        /* \"#utility.yul\":4039:4152   */\n      iszero\n      tag_218\n      jumpi\n        /* \"#utility.yul\":4138:4139   */\n      dup1\n        /* \"#utility.yul\":4133:4136   */\n      dup3\n        /* \"#utility.yul\":4129:4140   */\n      add\n        /* \"#utility.yul\":4123:4141   */\n      mload\n        /* \"#utility.yul\":4119:4120   */\n      dup2\n        /* \"#utility.yul\":4114:4117   */\n      dup5\n        /* \"#utility.yul\":4110:4121   */\n      add\n        /* \"#utility.yul\":4103:4142   */\n      mstore\n        /* \"#utility.yul\":4075:4077   */\n      0x20\n        /* \"#utility.yul\":4072:4073   */\n      dup2\n        /* \"#utility.yul\":4068:4078   */\n      add\n        /* \"#utility.yul\":4063:4078   */\n      swap1\n      pop\n        /* \"#utility.yul\":4039:4152   */\n      jump(tag_216)\n    tag_218:\n        /* \"#utility.yul\":4186:4187   */\n      0x00\n        /* \"#utility.yul\":4177:4183   */\n      dup5\n        /* \"#utility.yul\":4172:4175   */\n      dup5\n        /* \"#utility.yul\":4168:4184   */\n      add\n        /* \"#utility.yul\":4161:4188   */\n      mstore\n        /* \"#utility.yul\":4010:4194   */\n      pop\n        /* \"#utility.yul\":3948:4194   */\n      pop\n      pop\n      pop\n      jump\t// out\n        /* \"#utility.yul\":4200:4302   */\n    tag_135:\n        /* \"#utility.yul\":4241:4247   */\n      0x00\n        /* \"#utility.yul\":4292:4294   */\n      0x1f\n        /* \"#utility.yul\":4288:4295   */\n      not\n        /* \"#utility.yul\":4283:4285   */\n      0x1f\n        /* \"#utility.yul\":4276:4281   */\n      dup4\n        /* \"#utility.yul\":4272:4286   */\n      add\n        /* \"#utility.yul\":4268:4296   */\n      and\n        /* \"#utility.yul\":4258:4296   */\n      swap1\n      pop\n        /* \"#utility.yul\":4200:4302   */\n      swap2\n      swap1\n      pop\n      jump\t// out\n        /* \"#utility.yul\":4308:4685   */\n    tag_136:\n        /* \"#utility.yul\":4396:4399   */\n      0x00\n        /* \"#utility.yul\":4424:4463   */\n      tag_221\n        /* \"#utility.yul\":4457:4462   */\n      dup3\n        /* \"#utility.yul\":4424:4463   */\n      tag_132\n      jump\t// in\n    tag_221:\n        /* \"#utility.yul\":4479:4550   */\n      tag_222\n        /* \"#utility.yul\":4543:4549   */\n      dup2\n        /* \"#utility.yul\":4538:4541   */\n      dup6\n        /* \"#utility.yul\":4479:4550   */\n      tag_133\n      jump\t// in\n    tag_222:\n        /* \"#utility.yul\":4472:4550   */\n      swap4\n      pop\n        /* \"#utility.yul\":4559:4624   */\n      tag_223\n        /* \"#utility.yul\":4617:4623   */\n      dup2\n        /* \"#utility.yul\":4612:4615   */\n      dup6\n        /* \"#utility.yul\":4605:4609   */\n      0x20\n        /* \"#utility.yul\":4598:4603   */\n      dup7\n        /* \"#utility.yul\":4594:4610   */\n      add\n        /* \"#utility.yul\":4559:4624   */\n      tag_134\n      jump\t// in\n    tag_223:\n        /* \"#utility.yul\":4649:4678   */\n      tag_224\n        /* \"#utility.yul\":4671:4677   */\n      dup2\n        /* \"#utility.yul\":4649:4678   */\n      tag_135\n      jump\t// in\n    tag_224:\n        /* \"#utility.yul\":4644:4647   */\n      dup5\n        /* \"#utility.yul\":4640:4679   */\n      add\n        /* \"#utility.yul\":4633:4679   */\n      swap2\n      pop\n        /* \"#utility.yul\":4400:4685   */\n      pop\n        /* \"#utility.yul\":4308:4685   */\n      swap3\n      swap2\n      pop\n      pop\n      jump\t// out\n        /* \"#utility.yul\":4691:4795   */\n    tag_137:\n        /* \"#utility.yul\":4736:4743   */\n      0x00\n        /* \"#utility.yul\":4765:4789   */\n      tag_226\n        /* \"#utility.yul\":4783:4788   */\n      dup3\n        /* \"#utility.yul\":4765:4789   */\n      tag_121\n      jump\t// in\n    tag_226:\n        /* \"#utility.yul\":4754:4789   */\n      swap1\n      pop\n        /* \"#utility.yul\":4691:4795   */\n      swap2\n      swap1\n      pop\n      jump\t// out\n        /* \"#utility.yul\":4801:4943   */\n    tag_138:\n        /* \"#utility.yul\":4904:4936   */\n      tag_228\n        /* \"#utility.yul\":4930:4935   */\n      dup2\n        /* \"#utility.yul\":4904:4936   */\n      tag_137\n      jump\t// in\n    tag_228:\n        /* \"#utility.yul\":4899:4902   */\n      dup3\n        /* \"#utility.yul\":4892:4937   */\n      mstore\n        /* \"#utility.yul\":4801:4943   */\n      pop\n      pop\n      jump\t// out\n        /* \"#utility.yul\":4949:5724   */\n    tag_45:\n        /* \"#utility.yul\":5184:5188   */\n      0x00\n        /* \"#utility.yul\":5222:5225   */\n      0xa0\n        /* \"#utility.yul\":5211:5220   */\n      dup3\n        /* \"#utility.yul\":5207:5226   */\n      add\n        /* \"#utility.yul\":5199:5226   */\n      swap1\n      pop\n        /* \"#utility.yul\":5272:5281   */\n      dup2\n        /* \"#utility.yul\":5266:5270   */\n      dup2\n        /* \"#utility.yul\":5262:5282   */\n      sub\n        /* \"#utility.yul\":5258:5259   */\n      0x00\n        /* \"#utility.yul\":5247:5256   */\n      dup4\n        /* \"#utility.yul\":5243:5260   */\n      add\n        /* \"#utility.yul\":5236:5283   */\n      mstore\n        /* \"#utility.yul\":5300:5378   */\n      tag_230\n        /* \"#utility.yul\":5373:5377   */\n      dup2\n        /* \"#utility.yul\":5364:5370   */\n      dup9\n        /* \"#utility.yul\":5300:5378   */\n      tag_136\n      jump\t// in\n    tag_230:\n        /* \"#utility.yul\":5292:5378   */\n      swap1\n      pop\n        /* \"#utility.yul\":5388:5460   */\n      tag_231\n        /* \"#utility.yul\":5456:5458   */\n      0x20\n        /* \"#utility.yul\":5445:5454   */\n      dup4\n        /* \"#utility.yul\":5441:5459   */\n      add\n        /* \"#utility.yul\":5432:5438   */\n      dup8\n        /* \"#utility.yul\":5388:5460   */\n      tag_128\n      jump\t// in\n    tag_231:\n        /* \"#utility.yul\":5470:5558   */\n      tag_232\n        /* \"#utility.yul\":5554:5556   */\n      0x40\n        /* \"#utility.yul\":5543:5552   */\n      dup4\n        /* \"#utility.yul\":5539:5557   */\n      add\n        /* \"#utility.yul\":5530:5536   */\n      dup7\n        /* \"#utility.yul\":5470:5558   */\n      tag_138\n      jump\t// in\n    tag_232:\n        /* \"#utility.yul\":5568:5634   */\n      tag_233\n        /* \"#utility.yul\":5630:5632   */\n      0x60\n        /* \"#utility.yul\":5619:5628   */\n      dup4\n        /* \"#utility.yul\":5615:5633   */\n      add\n        /* \"#utility.yul\":5606:5612   */\n      dup6\n        /* \"#utility.yul\":5568:5634   */\n      tag_126\n      jump\t// in\n    tag_233:\n        /* \"#utility.yul\":5644:5717   */\n      tag_234\n        /* \"#utility.yul\":5712:5715   */\n      0x80\n        /* \"#utility.yul\":5701:5710   */\n      dup4\n        /* \"#utility.yul\":5697:5716   */\n      add\n        /* \"#utility.yul\":5688:5694   */\n      dup5\n        /* \"#utility.yul\":5644:5717   */\n      tag_128\n      jump\t// in\n    tag_234:\n        /* \"#utility.yul\":4949:5724   */\n      swap7\n      swap6\n      pop\n      pop\n      pop\n      pop\n      pop\n      pop\n      jump\t// out\n        /* \"#utility.yul\":5730:5847   */\n    tag_139:\n        /* \"#utility.yul\":5839:5840   */\n      0x00\n        /* \"#utility.yul\":5836:5837   */\n      dup1\n        /* \"#utility.yul\":5829:5841   */\n      revert\n        /* \"#utility.yul\":5853:5970   */\n    tag_140:\n        /* \"#utility.yul\":5962:5963   */\n      0x00\n        /* \"#utility.yul\":5959:5960   */\n      dup1\n        /* \"#utility.yul\":5952:5964   */\n      revert\n        /* \"#utility.yul\":5976:6156   */\n    tag_141:\n        /* \"#utility.yul\":6024:6101   */\n      0x4e487b7100000000000000000000000000000000000000000000000000000000\n        /* \"#utility.yul\":6021:6022   */\n      0x00\n        /* \"#utility.yul\":6014:6102   */\n      mstore\n        /* \"#utility.yul\":6121:6125   */\n      0x41\n        /* \"#utility.yul\":6118:6119   */\n      0x04\n        /* \"#utility.yul\":6111:6126   */\n      mstore\n        /* \"#utility.yul\":6145:6149   */\n      0x24\n        /* \"#utility.yul\":6142:6143   */\n      0x00\n        /* \"#utility.yul\":6135:6150   */\n      revert\n        /* \"#utility.yul\":6162:6443   */\n    tag_142:\n        /* \"#utility.yul\":6245:6272   */\n      tag_239\n        /* \"#utility.yul\":6267:6271   */\n      dup3\n        /* \"#utility.yul\":6245:6272   */\n      tag_135\n      jump\t// in\n    tag_239:\n        /* \"#utility.yul\":6237:6243   */\n      dup2\n        /* \"#utility.yul\":6233:6273   */\n      add\n        /* \"#utility.yul\":6375:6381   */\n      dup2\n        /* \"#utility.yul\":6363:6373   */\n      dup2\n        /* \"#utility.yul\":6360:6382   */\n      lt\n        /* \"#utility.yul\":6339:6357   */\n      0xffffffffffffffff\n        /* \"#utility.yul\":6327:6337   */\n      dup3\n        /* \"#utility.yul\":6324:6358   */\n      gt\n        /* \"#utility.yul\":6321:6383   */\n      or\n        /* \"#utility.yul\":6318:6406   */\n      iszero\n      tag_240\n      jumpi\n        /* \"#utility.yul\":6386:6404   */\n      tag_241\n      tag_141\n      jump\t// in\n    tag_241:\n        /* \"#utility.yul\":6318:6406   */\n    tag_240:\n        /* \"#utility.yul\":6426:6436   */\n      dup1\n        /* \"#utility.yul\":6422:6424   */\n      0x40\n        /* \"#utility.yul\":6415:6437   */\n      mstore\n        /* \"#utility.yul\":6205:6443   */\n      pop\n        /* \"#utility.yul\":6162:6443   */\n      pop\n      pop\n      jump\t// out\n        /* \"#utility.yul\":6449:6578   */\n    tag_143:\n        /* \"#utility.yul\":6483:6489   */\n      0x00\n        /* \"#utility.yul\":6510:6530   */\n      tag_243\n      tag_118\n      jump\t// in\n    tag_243:\n        /* \"#utility.yul\":6500:6530   */\n      swap1\n      pop\n        /* \"#utility.yul\":6539:6572   */\n      tag_244\n        /* \"#utility.yul\":6567:6571   */\n      dup3\n        /* \"#utility.yul\":6559:6565   */\n      dup3\n        /* \"#utility.yul\":6539:6572   */\n      tag_142\n      jump\t// in\n    tag_244:\n        /* \"#utility.yul\":6449:6578   */\n      swap2\n      swap1\n      pop\n      jump\t// out\n        /* \"#utility.yul\":6584:6892   */\n    tag_144:\n        /* \"#utility.yul\":6646:6650   */\n      0x00\n        /* \"#utility.yul\":6736:6754   */\n      0xffffffffffffffff\n        /* \"#utility.yul\":6728:6734   */\n      dup3\n        /* \"#utility.yul\":6725:6755   */\n      gt\n        /* \"#utility.yul\":6722:6778   */\n      iszero\n      tag_246\n      jumpi\n        /* \"#utility.yul\":6758:6776   */\n      tag_247\n      tag_141\n      jump\t// in\n    tag_247:\n        /* \"#utility.yul\":6722:6778   */\n    tag_246:\n        /* \"#utility.yul\":6796:6825   */\n      tag_248\n        /* \"#utility.yul\":6818:6824   */\n      dup3\n        /* \"#utility.yul\":6796:6825   */\n      tag_135\n      jump\t// in\n    tag_248:\n        /* \"#utility.yul\":6788:6825   */\n      swap1\n      pop\n        /* \"#utility.yul\":6880:6884   */\n      0x20\n        /* \"#utility.yul\":6874:6878   */\n      dup2\n        /* \"#utility.yul\":6870:6885   */\n      add\n        /* \"#utility.yul\":6862:6885   */\n      swap1\n      pop\n        /* \"#utility.yul\":6584:6892   */\n      swap2\n      swap1\n      pop\n      jump\t// out\n        /* \"#utility.yul\":6898:7044   */\n    tag_145:\n        /* \"#utility.yul\":6995:7001   */\n      dup3\n        /* \"#utility.yul\":6990:6993   */\n      dup2\n        /* \"#utility.yul\":6985:6988   */\n      dup4\n        /* \"#utility.yul\":6972:7002   */\n      calldatacopy\n        /* \"#utility.yul\":7036:7037   */\n      0x00\n        /* \"#utility.yul\":7027:7033   */\n      dup4\n        /* \"#utility.yul\":7022:7025   */\n      dup4\n        /* \"#utility.yul\":7018:7034   */\n      add\n        /* \"#utility.yul\":7011:7038   */\n      mstore\n        /* \"#utility.yul\":6898:7044   */\n      pop\n      pop\n      pop\n      jump\t// out\n        /* \"#utility.yul\":7050:7475   */\n    tag_146:\n        /* \"#utility.yul\":7128:7133   */\n      0x00\n        /* \"#utility.yul\":7153:7219   */\n      tag_251\n        /* \"#utility.yul\":7169:7218   */\n      tag_252\n        /* \"#utility.yul\":7211:7217   */\n      dup5\n        /* \"#utility.yul\":7169:7218   */\n      tag_144\n      jump\t// in\n    tag_252:\n        /* \"#utility.yul\":7153:7219   */\n      tag_143\n      jump\t// in\n    tag_251:\n        /* \"#utility.yul\":7144:7219   */\n      swap1\n      pop\n        /* \"#utility.yul\":7242:7248   */\n      dup3\n        /* \"#utility.yul\":7235:7240   */\n      dup2\n        /* \"#utility.yul\":7228:7249   */\n      mstore\n        /* \"#utility.yul\":7280:7284   */\n      0x20\n        /* \"#utility.yul\":7273:7278   */\n      dup2\n        /* \"#utility.yul\":7269:7285   */\n      add\n        /* \"#utility.yul\":7318:7321   */\n      dup5\n        /* \"#utility.yul\":7309:7315   */\n      dup5\n        /* \"#utility.yul\":7304:7307   */\n      dup5\n        /* \"#utility.yul\":7300:7316   */\n      add\n        /* \"#utility.yul\":7297:7322   */\n      gt\n        /* \"#utility.yul\":7294:7406   */\n      iszero\n      tag_253\n      jumpi\n        /* \"#utility.yul\":7325:7404   */\n      tag_254\n      tag_140\n      jump\t// in\n    tag_254:\n        /* \"#utility.yul\":7294:7406   */\n    tag_253:\n        /* \"#utility.yul\":7415:7469   */\n      tag_255\n        /* \"#utility.yul\":7462:7468   */\n      dup5\n        /* \"#utility.yul\":7457:7460   */\n      dup3\n        /* \"#utility.yul\":7452:7455   */\n      dup6\n        /* \"#utility.yul\":7415:7469   */\n      tag_145\n      jump\t// in\n    tag_255:\n        /* \"#utility.yul\":7134:7475   */\n      pop\n        /* \"#utility.yul\":7050:7475   */\n      swap4\n      swap3\n      pop\n      pop\n      pop\n      jump\t// out\n        /* \"#utility.yul\":7495:7835   */\n    tag_147:\n        /* \"#utility.yul\":7551:7556   */\n      0x00\n        /* \"#utility.yul\":7600:7603   */\n      dup3\n        /* \"#utility.yul\":7593:7597   */\n      0x1f\n        /* \"#utility.yul\":7585:7591   */\n      dup4\n        /* \"#utility.yul\":7581:7598   */\n      add\n        /* \"#utility.yul\":7577:7604   */\n      slt\n        /* \"#utility.yul\":7567:7689   */\n      tag_257\n      jumpi\n        /* \"#utility.yul\":7608:7687   */\n      tag_258\n      tag_139\n      jump\t// in\n    tag_258:\n        /* \"#utility.yul\":7567:7689   */\n    tag_257:\n        /* \"#utility.yul\":7725:7731   */\n      dup2\n        /* \"#utility.yul\":7712:7732   */\n      calldataload\n        /* \"#utility.yul\":7750:7829   */\n      tag_259\n        /* \"#utility.yul\":7825:7828   */\n      dup5\n        /* \"#utility.yul\":7817:7823   */\n      dup3\n        /* \"#utility.yul\":7810:7814   */\n      0x20\n        /* \"#utility.yul\":7802:7808   */\n      dup7\n        /* \"#utility.yul\":7798:7815   */\n      add\n        /* \"#utility.yul\":7750:7829   */\n      tag_146\n      jump\t// in\n    tag_259:\n        /* \"#utility.yul\":7741:7829   */\n      swap2\n      pop\n        /* \"#utility.yul\":7557:7835   */\n      pop\n        /* \"#utility.yul\":7495:7835   */\n      swap3\n      swap2\n      pop\n      pop\n      jump\t// out\n        /* \"#utility.yul\":7841:7979   */\n    tag_148:\n        /* \"#utility.yul\":7922:7954   */\n      tag_261\n        /* \"#utility.yul\":7948:7953   */\n      dup2\n        /* \"#utility.yul\":7922:7954   */\n      tag_137\n      jump\t// in\n    tag_261:\n        /* \"#utility.yul\":7915:7920   */\n      dup2\n        /* \"#utility.yul\":7912:7955   */\n      eq\n        /* \"#utility.yul\":7902:7973   */\n      tag_262\n      jumpi\n        /* \"#utility.yul\":7969:7970   */\n      0x00\n        /* \"#utility.yul\":7966:7967   */\n      dup1\n        /* \"#utility.yul\":7959:7971   */\n      revert\n        /* \"#utility.yul\":7902:7973   */\n    tag_262:\n        /* \"#utility.yul\":7841:7979   */\n      pop\n      jump\t// out\n        /* \"#utility.yul\":7985:8140   */\n    tag_149:\n        /* \"#utility.yul\":8039:8044   */\n      0x00\n        /* \"#utility.yul\":8077:8083   */\n      dup2\n        /* \"#utility.yul\":8064:8084   */\n      calldataload\n        /* \"#utility.yul\":8055:8084   */\n      swap1\n      pop\n        /* \"#utility.yul\":8093:8134   */\n      tag_264\n        /* \"#utility.yul\":8128:8133   */\n      dup2\n        /* \"#utility.yul\":8093:8134   */\n      tag_148\n      jump\t// in\n    tag_264:\n        /* \"#utility.yul\":7985:8140   */\n      swap3\n      swap2\n      pop\n      pop\n      jump\t// out\n        /* \"#utility.yul\":8146:8961   */\n    tag_53:\n        /* \"#utility.yul\":8241:8247   */\n      0x00\n        /* \"#utility.yul\":8249:8255   */\n      dup1\n        /* \"#utility.yul\":8257:8263   */\n      0x00\n        /* \"#utility.yul\":8306:8308   */\n      0x60\n        /* \"#utility.yul\":8294:8303   */\n      dup5\n        /* \"#utility.yul\":8285:8292   */\n      dup7\n        /* \"#utility.yul\":8281:8304   */\n      sub\n        /* \"#utility.yul\":8277:8309   */\n      slt\n        /* \"#utility.yul\":8274:8393   */\n      iszero\n      tag_266\n      jumpi\n        /* \"#utility.yul\":8312:8391   */\n      tag_267\n      tag_119\n      jump\t// in\n    tag_267:\n        /* \"#utility.yul\":8274:8393   */\n    tag_266:\n        /* \"#utility.yul\":8460:8461   */\n      0x00\n        /* \"#utility.yul\":8449:8458   */\n      dup5\n        /* \"#utility.yul\":8445:8462   */\n      add\n        /* \"#utility.yul\":8432:8463   */\n      calldataload\n        /* \"#utility.yul\":8490:8508   */\n      0xffffffffffffffff\n        /* \"#utility.yul\":8482:8488   */\n      dup2\n        /* \"#utility.yul\":8479:8509   */\n      gt\n        /* \"#utility.yul\":8476:8593   */\n      iszero\n      tag_268\n      jumpi\n        /* \"#utility.yul\":8512:8591   */\n      tag_269\n      tag_120\n      jump\t// in\n    tag_269:\n        /* \"#utility.yul\":8476:8593   */\n    tag_268:\n        /* \"#utility.yul\":8617:8680   */\n      tag_270\n        /* \"#utility.yul\":8672:8679   */\n      dup7\n        /* \"#utility.yul\":8663:8669   */\n      dup3\n        /* \"#utility.yul\":8652:8661   */\n      dup8\n        /* \"#utility.yul\":8648:8670   */\n      add\n        /* \"#utility.yul\":8617:8680   */\n      tag_147\n      jump\t// in\n    tag_270:\n        /* \"#utility.yul\":8607:8680   */\n      swap4\n      pop\n        /* \"#utility.yul\":8403:8690   */\n      pop\n        /* \"#utility.yul\":8729:8731   */\n      0x20\n        /* \"#utility.yul\":8755:8808   */\n      tag_271\n        /* \"#utility.yul\":8800:8807   */\n      dup7\n        /* \"#utility.yul\":8791:8797   */\n      dup3\n        /* \"#utility.yul\":8780:8789   */\n      dup8\n        /* \"#utility.yul\":8776:8798   */\n      add\n        /* \"#utility.yul\":8755:8808   */\n      tag_131\n      jump\t// in\n    tag_271:\n        /* \"#utility.yul\":8745:8808   */\n      swap3\n      pop\n        /* \"#utility.yul\":8700:8818   */\n      pop\n        /* \"#utility.yul\":8857:8859   */\n      0x40\n        /* \"#utility.yul\":8883:8944   */\n      tag_272\n        /* \"#utility.yul\":8936:8943   */\n      dup7\n        /* \"#utility.yul\":8927:8933   */\n      dup3\n        /* \"#utility.yul\":8916:8925   */\n      dup8\n        /* \"#utility.yul\":8912:8934   */\n      add\n        /* \"#utility.yul\":8883:8944   */\n      tag_149\n      jump\t// in\n    tag_272:\n        /* \"#utility.yul\":8873:8944   */\n      swap2\n      pop\n        /* \"#utility.yul\":8828:8954   */\n      pop\n        /* \"#utility.yul\":8146:8961   */\n      swap3\n      pop\n      swap3\n      pop\n      swap3\n      jump\t// out\n        /* \"#utility.yul\":8967:9147   */\n    tag_150:\n        /* \"#utility.yul\":9015:9092   */\n      0x4e487b7100000000000000000000000000000000000000000000000000000000\n        /* \"#utility.yul\":9012:9013   */\n      0x00\n        /* \"#utility.yul\":9005:9093   */\n      mstore\n        /* \"#utility.yul\":9112:9116   */\n      0x22\n        /* \"#utility.yul\":9109:9110   */\n      0x04\n        /* \"#utility.yul\":9102:9117   */\n      mstore\n        /* \"#utility.yul\":9136:9140   */\n      0x24\n        /* \"#utility.yul\":9133:9134   */\n      0x00\n        /* \"#utility.yul\":9126:9141   */\n      revert\n        /* \"#utility.yul\":9153:9473   */\n    tag_82:\n        /* \"#utility.yul\":9197:9203   */\n      0x00\n        /* \"#utility.yul\":9234:9235   */\n      0x02\n        /* \"#utility.yul\":9228:9232   */\n      dup3\n        /* \"#utility.yul\":9224:9236   */\n      div\n        /* \"#utility.yul\":9214:9236   */\n      swap1\n      pop\n        /* \"#utility.yul\":9281:9282   */\n      0x01\n        /* \"#utility.yul\":9275:9279   */\n      dup3\n        /* \"#utility.yul\":9271:9283   */\n      and\n        /* \"#utility.yul\":9302:9320   */\n      dup1\n        /* \"#utility.yul\":9292:9373   */\n      tag_275\n      jumpi\n        /* \"#utility.yul\":9358:9362   */\n      0x7f\n        /* \"#utility.yul\":9350:9356   */\n      dup3\n        /* \"#utility.yul\":9346:9363   */\n      and\n        /* \"#utility.yul\":9336:9363   */\n      swap2\n      pop\n        /* \"#utility.yul\":9292:9373   */\n    tag_275:\n        /* \"#utility.yul\":9420:9422   */\n      0x20\n        /* \"#utility.yul\":9412:9418   */\n      dup3\n        /* \"#utility.yul\":9409:9423   */\n      lt\n        /* \"#utility.yul\":9389:9407   */\n      dup2\n        /* \"#utility.yul\":9386:9424   */\n      sub\n        /* \"#utility.yul\":9383:9467   */\n      tag_276\n      jumpi\n        /* \"#utility.yul\":9439:9457   */\n      tag_277\n      tag_150\n      jump\t// in\n    tag_277:\n        /* \"#utility.yul\":9383:9467   */\n    tag_276:\n        /* \"#utility.yul\":9204:9473   */\n      pop\n        /* \"#utility.yul\":9153:9473   */\n      swap2\n      swap1\n      pop\n      jump\t// out\n        /* \"#utility.yul\":9479:9620   */\n    tag_151:\n        /* \"#utility.yul\":9528:9532   */\n      0x00\n        /* \"#utility.yul\":9551:9554   */\n      dup2\n        /* \"#utility.yul\":9543:9554   */\n      swap1\n      pop\n        /* \"#utility.yul\":9574:9577   */\n      dup2\n        /* \"#utility.yul\":9571:9572   */\n      0x00\n        /* \"#utility.yul\":9564:9578   */\n      mstore\n        /* \"#utility.yul\":9608:9612   */\n      0x20\n        /* \"#utility.yul\":9605:9606   */\n      0x00\n        /* \"#utility.yul\":9595:9613   */\n      keccak256\n        /* \"#utility.yul\":9587:9613   */\n      swap1\n      pop\n        /* \"#utility.yul\":9479:9620   */\n      swap2\n      swap1\n      pop\n      jump\t// out\n        /* \"#utility.yul\":9626:9719   */\n    tag_152:\n        /* \"#utility.yul\":9663:9669   */\n      0x00\n        /* \"#utility.yul\":9710:9712   */\n      0x20\n        /* \"#utility.yul\":9705:9707   */\n      0x1f\n        /* \"#utility.yul\":9698:9703   */\n      dup4\n        /* \"#utility.yul\":9694:9708   */\n      add\n        /* \"#utility.yul\":9690:9713   */\n      div\n        /* \"#utility.yul\":9680:9713   */\n      swap1\n      pop\n        /* \"#utility.yul\":9626:9719   */\n      swap2\n      swap1\n      pop\n      jump\t// out\n        /* \"#utility.yul\":9725:9832   */\n    tag_153:\n        /* \"#utility.yul\":9769:9777   */\n      0x00\n        /* \"#utility.yul\":9819:9824   */\n      dup3\n        /* \"#utility.yul\":9813:9817   */\n      dup3\n        /* \"#utility.yul\":9809:9825   */\n      shl\n        /* \"#utility.yul\":9788:9825   */\n      swap1\n      pop\n        /* \"#utility.yul\":9725:9832   */\n      swap3\n      swap2\n      pop\n      pop\n      jump\t// out\n        /* \"#utility.yul\":9838:10231   */\n    tag_154:\n        /* \"#utility.yul\":9907:9913   */\n      0x00\n        /* \"#utility.yul\":9957:9958   */\n      0x08\n        /* \"#utility.yul\":9945:9955   */\n      dup4\n        /* \"#utility.yul\":9941:9959   */\n      mul\n        /* \"#utility.yul\":9980:10077   */\n      tag_282\n        /* \"#utility.yul\":10010:10076   */\n      0xffffffffffffffffffffffffffffffffffffffffffffffffffffffffffffffff\n        /* \"#utility.yul\":9999:10008   */\n      dup3\n        /* \"#utility.yul\":9980:10077   */\n      tag_153\n      jump\t// in\n    tag_282:\n        /* \"#utility.yul\":10098:10137   */\n      tag_283\n        /* \"#utility.yul\":10128:10136   */\n      dup7\n        /* \"#utility.yul\":10117:10126   */\n      dup4\n        /* \"#utility.yul\":10098:10137   */\n      tag_153\n      jump\t// in\n    tag_283:\n        /* \"#utility.yul\":10086:10137   */\n      swap6\n      pop\n        /* \"#utility.yul\":10170:10174   */\n      dup1\n        /* \"#utility.yul\":10166:10175   */\n      not\n        /* \"#utility.yul\":10159:10164   */\n      dup5\n        /* \"#utility.yul\":10155:10176   */\n      and\n        /* \"#utility.yul\":10146:10176   */\n      swap4\n      pop\n        /* \"#utility.yul\":10219:10223   */\n      dup1\n        /* \"#utility.yul\":10209:10217   */\n      dup7\n        /* \"#utility.yul\":10205:10224   */\n      and\n        /* \"#utility.yul\":10198:10203   */\n      dup5\n        /* \"#utility.yul\":10195:10225   */\n      or\n        /* \"#utility.yul\":10185:10225   */\n      swap3\n      pop\n        /* \"#utility.yul\":9914:10231   */\n      pop\n      pop\n        /* \"#utility.yul\":9838:10231   */\n      swap4\n      swap3\n      pop\n      pop\n      pop\n      jump\t// out\n        /* \"#utility.yul\":10237:10297   */\n    tag_155:\n        /* \"#utility.yul\":10265:10268   */\n      0x00\n        /* \"#utility.yul\":10286:10291   */\n      dup2\n        /* \"#utility.yul\":10279:10291   */\n      swap1\n      pop\n        /* \"#utility.yul\":10237:10297   */\n      swap2\n      swap1\n      pop\n      jump\t// out\n        /* \"#utility.yul\":10303:10445   */\n    tag_156:\n        /* \"#utility.yul\":10353:10362   */\n      0x00\n        /* \"#utility.yul\":10386:10439   */\n      tag_286\n        /* \"#utility.yul\":10404:10438   */\n      tag_287\n        /* \"#utility.yul\":10413:10437   */\n      tag_288\n        /* \"#utility.yul\":10431:10436   */\n      dup5\n        /* \"#utility.yul\":10413:10437   */\n      tag_127\n      jump\t// in\n    tag_288:\n        /* \"#utility.yul\":10404:10438   */\n      tag_155\n      jump\t// in\n    tag_287:\n        /* \"#utility.yul\":10386:10439   */\n      tag_127\n      jump\t// in\n    tag_286:\n        /* \"#utility.yul\":10373:10439   */\n      swap1\n      pop\n        /* \"#utility.yul\":10303:10445   */\n      swap2\n      swap1\n      pop\n      jump\t// out\n        /* \"#utility.yul\":10451:10526   */\n    tag_157:\n        /* \"#utility.yul\":10494:10497   */\n      0x00\n        /* \"#utility.yul\":10515:10520   */\n      dup2\n        /* \"#utility.yul\":10508:10520   */\n      swap1\n      pop\n        /* \"#utility.yul\":10451:10526   */\n      swap2\n      swap1\n      pop\n      jump\t// out\n        /* \"#utility.yul\":10532:10801   */\n    tag_158:\n        /* \"#utility.yul\":10642:10681   */\n      tag_291\n        /* \"#utility.yul\":10673:10680   */\n      dup4\n        /* \"#utility.yul\":10642:10681   */\n      tag_156\n      jump\t// in\n    tag_291:\n        /* \"#utility.yul\":10703:10794   */\n      tag_292\n        /* \"#utility.yul\":10752:10793   */\n      tag_293\n        /* \"#utility.yul\":10776:10792   */\n      dup3\n        /* \"#utility.yul\":10752:10793   */\n      tag_157\n      jump\t// in\n    tag_293:\n        /* \"#utility.yul\":10744:10750   */\n      dup5\n        /* \"#utility.yul\":10737:10741   */\n      dup5\n        /* \"#utility.yul\":10731:10742   */\n      sload\n        /* \"#utility.yul\":10703:10794   */\n      tag_154\n      jump\t// in\n    tag_292:\n        /* \"#utility.yul\":10697:10701   */\n      dup3\n        /* \"#utility.yul\":10690:10795   */\n      sstore\n        /* \"#utility.yul\":10608:10801   */\n      pop\n        /* \"#utility.yul\":10532:10801   */\n      pop\n      pop\n      pop\n      jump\t// out\n        /* \"#utility.yul\":10807:10880   */\n    tag_159:\n        /* \"#utility.yul\":10852:10855   */\n      0x00\n        /* \"#utility.yul\":10807:10880   */\n      swap1\n      jump\t// out\n        /* \"#utility.yul\":10886:11075   */\n    tag_160:\n        /* \"#utility.yul\":10963:10995   */\n      tag_296\n      tag_159\n      jump\t// in\n    tag_296:\n        /* \"#utility.yul\":11004:11069   */\n      tag_297\n        /* \"#utility.yul\":11062:11068   */\n      dup2\n        /* \"#utility.yul\":11054:11060   */\n      dup5\n        /* \"#utility.yul\":11048:11052   */\n      dup5\n        /* \"#utility.yul\":11004:11069   */\n      tag_158\n      jump\t// in\n    tag_297:\n        /* \"#utility.yul\":10939:11075   */\n      pop\n        /* \"#utility.yul\":10886:11075   */\n      pop\n      pop\n      jump\t// out\n        /* \"#utility.yul\":11081:11267   */\n    tag_161:\n        /* \"#utility.yul\":11141:11261   */\n    tag_299:\n        /* \"#utility.yul\":11158:11161   */\n      dup2\n        /* \"#utility.yul\":11151:11156   */\n      dup2\n        /* \"#utility.yul\":11148:11162   */\n      lt\n        /* \"#utility.yul\":11141:11261   */\n      iszero\n      tag_301\n      jumpi\n        /* \"#utility.yul\":11212:11251   */\n      tag_302\n        /* \"#utility.yul\":11249:11250   */\n      0x00\n        /* \"#utility.yul\":11242:11247   */\n      dup3\n        /* \"#utility.yul\":11212:11251   */\n      tag_160\n      jump\t// in\n    tag_302:\n        /* \"#utility.yul\":11185:11186   */\n      0x01\n        /* \"#utility.yul\":11178:11183   */\n      dup2\n        /* \"#utility.yul\":11174:11187   */\n      add\n        /* \"#utility.yul\":11165:11187   */\n      swap1\n      pop\n        /* \"#utility.yul\":11141:11261   */\n      jump(tag_299)\n    tag_301:\n        /* \"#utility.yul\":11081:11267   */\n      pop\n      pop\n      jump\t// out\n        /* \"#utility.yul\":11273:11816   */\n    tag_162:\n        /* \"#utility.yul\":11374:11376   */\n      0x1f\n        /* \"#utility.yul\":11369:11372   */\n      dup3\n        /* \"#utility.yul\":11366:11377   */\n      gt\n        /* \"#utility.yul\":11363:11809   */\n      iszero\n      tag_304\n      jumpi\n        /* \"#utility.yul\":11408:11446   */\n      tag_305\n        /* \"#utility.yul\":11440:11445   */\n      dup2\n        /* \"#utility.yul\":11408:11446   */\n      tag_151\n      jump\t// in\n    tag_305:\n        /* \"#utility.yul\":11492:11521   */\n      tag_306\n        /* \"#utility.yul\":11510:11520   */\n      dup5\n        /* \"#utility.yul\":11492:11521   */\n      tag_152\n      jump\t// in\n    tag_306:\n        /* \"#utility.yul\":11482:11490   */\n      dup2\n        /* \"#utility.yul\":11478:11522   */\n      add\n        /* \"#utility.yul\":11675:11677   */\n      0x20\n        /* \"#utility.yul\":11663:11673   */\n      dup6\n        /* \"#utility.yul\":11660:11678   */\n      lt\n        /* \"#utility.yul\":11657:11706   */\n      iszero\n      tag_307\n      jumpi\n        /* \"#utility.yul\":11696:11704   */\n      dup2\n        /* \"#utility.yul\":11681:11704   */\n      swap1\n      pop\n        /* \"#utility.yul\":11657:11706   */\n    tag_307:\n        /* \"#utility.yul\":11719:11799   */\n      tag_308\n        /* \"#utility.yul\":11775:11797   */\n      tag_309\n        /* \"#utility.yul\":11793:11796   */\n      dup6\n        /* \"#utility.yul\":11775:11797   */\n      tag_152\n      jump\t// in\n    tag_309:\n        /* \"#utility.yul\":11765:11773   */\n      dup4\n        /* \"#utility.yul\":11761:11798   */\n      add\n        /* \"#utility.yul\":11748:11759   */\n      dup3\n        /* \"#utility.yul\":11719:11799   */\n      tag_161\n      jump\t// in\n    tag_308:\n        /* \"#utility.yul\":11378:11809   */\n      pop\n      pop\n        /* \"#utility.yul\":11363:11809   */\n    tag_304:\n        /* \"#utility.yul\":11273:11816   */\n      pop\n      pop\n      pop\n      jump\t// out\n        /* \"#utility.yul\":11822:11939   */\n    tag_163:\n        /* \"#utility.yul\":11876:11884   */\n      0x00\n        /* \"#utility.yul\":11926:11931   */\n      dup3\n        /* \"#utility.yul\":11920:11924   */\n      dup3\n        /* \"#utility.yul\":11916:11932   */\n      shr\n        /* \"#utility.yul\":11895:11932   */\n      swap1\n      pop\n        /* \"#utility.yul\":11822:11939   */\n      swap3\n      swap2\n      pop\n      pop\n      jump\t// out\n        /* \"#utility.yul\":11945:12114   */\n    tag_164:\n        /* \"#utility.yul\":11989:11995   */\n      0x00\n        /* \"#utility.yul\":12022:12073   */\n      tag_312\n        /* \"#utility.yul\":12070:12071   */\n      0x00\n        /* \"#utility.yul\":12066:12072   */\n      not\n        /* \"#utility.yul\":12058:12063   */\n      dup5\n        /* \"#utility.yul\":12055:12056   */\n      0x08\n        /* \"#utility.yul\":12051:12064   */\n      mul\n        /* \"#utility.yul\":12022:12073   */\n      tag_163\n      jump\t// in\n    tag_312:\n        /* \"#utility.yul\":12018:12074   */\n      not\n        /* \"#utility.yul\":12103:12107   */\n      dup1\n        /* \"#utility.yul\":12097:12101   */\n      dup4\n        /* \"#utility.yul\":12093:12108   */\n      and\n        /* \"#utility.yul\":12083:12108   */\n      swap2\n      pop\n        /* \"#utility.yul\":11996:12114   */\n      pop\n        /* \"#utility.yul\":11945:12114   */\n      swap3\n      swap2\n      pop\n      pop\n      jump\t// out\n        /* \"#utility.yul\":12119:12414   */\n    tag_165:\n        /* \"#utility.yul\":12195:12199   */\n      0x00\n        /* \"#utility.yul\":12341:12370   */\n      tag_314\n        /* \"#utility.yul\":12366:12369   */\n      dup4\n        /* \"#utility.yul\":12360:12364   */\n      dup4\n        /* \"#utility.yul\":12341:12370   */\n      tag_164\n      jump\t// in\n    tag_314:\n        /* \"#utility.yul\":12333:12370   */\n      swap2\n      pop\n        /* \"#utility.yul\":12403:12406   */\n      dup3\n        /* \"#utility.yul\":12400:12401   */\n      0x02\n        /* \"#utility.yul\":12396:12407   */\n      mul\n        /* \"#utility.yul\":12390:12394   */\n      dup3\n        /* \"#utility.yul\":12387:12408   */\n      or\n        /* \"#utility.yul\":12379:12408   */\n      swap1\n      pop\n        /* \"#utility.yul\":12119:12414   */\n      swap3\n      swap2\n      pop\n      pop\n      jump\t// out\n        /* \"#utility.yul\":12419:13814   */\n    tag_92:\n        /* \"#utility.yul\":12536:12573   */\n      tag_316\n        /* \"#utility.yul\":12569:12572   */\n      dup3\n        /* \"#utility.yul\":12536:12573   */\n      tag_132\n      jump\t// in\n    tag_316:\n        /* \"#utility.yul\":12638:12656   */\n      0xffffffffffffffff\n        /* \"#utility.yul\":12630:12636   */\n      dup2\n        /* \"#utility.yul\":12627:12657   */\n      gt\n        /* \"#utility.yul\":12624:12680   */\n      iszero\n      tag_317\n      jumpi\n        /* \"#utility.yul\":12660:12678   */\n      tag_318\n      tag_141\n      jump\t// in\n    tag_318:\n        /* \"#utility.yul\":12624:12680   */\n    tag_317:\n        /* \"#utility.yul\":12704:12742   */\n      tag_319\n        /* \"#utility.yul\":12736:12740   */\n      dup3\n        /* \"#utility.yul\":12730:12741   */\n      sload\n        /* \"#utility.yul\":12704:12742   */\n      tag_82\n      jump\t// in\n    tag_319:\n        /* \"#utility.yul\":12789:12856   */\n      tag_320\n        /* \"#utility.yul\":12849:12855   */\n      dup3\n        /* \"#utility.yul\":12841:12847   */\n      dup3\n        /* \"#utility.yul\":12835:12839   */\n      dup6\n        /* \"#utility.yul\":12789:12856   */\n      tag_162\n      jump\t// in\n    tag_320:\n        /* \"#utility.yul\":12883:12884   */\n      0x00\n        /* \"#utility.yul\":12907:12911   */\n      0x20\n        /* \"#utility.yul\":12894:12911   */\n      swap1\n      pop\n        /* \"#utility.yul\":12939:12941   */\n      0x1f\n        /* \"#utility.yul\":12931:12937   */\n      dup4\n        /* \"#utility.yul\":12928:12942   */\n      gt\n        /* \"#utility.yul\":12956:12957   */\n      0x01\n        /* \"#utility.yul\":12951:13569   */\n      dup2\n      eq\n      tag_322\n      jumpi\n        /* \"#utility.yul\":13613:13614   */\n      0x00\n        /* \"#utility.yul\":13630:13636   */\n      dup5\n        /* \"#utility.yul\":13627:13704   */\n      iszero\n      tag_323\n      jumpi\n        /* \"#utility.yul\":13679:13688   */\n      dup3\n        /* \"#utility.yul\":13674:13677   */\n      dup8\n        /* \"#utility.yul\":13670:13689   */\n      add\n        /* \"#utility.yul\":13664:13690   */\n      mload\n        /* \"#utility.yul\":13655:13690   */\n      swap1\n      pop\n        /* \"#utility.yul\":13627:13704   */\n    tag_323:\n        /* \"#utility.yul\":13730:13797   */\n      tag_324\n        /* \"#utility.yul\":13790:13796   */\n      dup6\n        /* \"#utility.yul\":13783:13788   */\n      dup3\n        /* \"#utility.yul\":13730:13797   */\n      tag_165\n      jump\t// in\n    tag_324:\n        /* \"#utility.yul\":13724:13728   */\n      dup7\n        /* \"#utility.yul\":13717:13798   */\n      sstore\n        /* \"#utility.yul\":13586:13808   */\n      pop\n        /* \"#utility.yul\":12921:13808   */\n      jump(tag_321)\n        /* \"#utility.yul\":12951:13569   */\n    tag_322:\n        /* \"#utility.yul\":13003:13007   */\n      0x1f\n        /* \"#utility.yul\":12999:13008   */\n      not\n        /* \"#utility.yul\":12991:12997   */\n      dup5\n        /* \"#utility.yul\":12987:13009   */\n      and\n        /* \"#utility.yul\":13037:13074   */\n      tag_325\n        /* \"#utility.yul\":13069:13073   */\n      dup7\n        /* \"#utility.yul\":13037:13074   */\n      tag_151\n      jump\t// in\n    tag_325:\n        /* \"#utility.yul\":13096:13097   */\n      0x00\n        /* \"#utility.yul\":13110:13318   */\n    tag_326:\n        /* \"#utility.yul\":13124:13131   */\n      dup3\n        /* \"#utility.yul\":13121:13122   */\n      dup2\n        /* \"#utility.yul\":13118:13132   */\n      lt\n        /* \"#utility.yul\":13110:13318   */\n      iszero\n      tag_328\n      jumpi\n        /* \"#utility.yul\":13203:13212   */\n      dup5\n        /* \"#utility.yul\":13198:13201   */\n      dup10\n        /* \"#utility.yul\":13194:13213   */\n      add\n        /* \"#utility.yul\":13188:13214   */\n      mload\n        /* \"#utility.yul\":13180:13186   */\n      dup3\n        /* \"#utility.yul\":13173:13215   */\n      sstore\n        /* \"#utility.yul\":13254:13255   */\n      0x01\n        /* \"#utility.yul\":13246:13252   */\n      dup3\n        /* \"#utility.yul\":13242:13256   */\n      add\n        /* \"#utility.yul\":13232:13256   */\n      swap2\n      pop\n        /* \"#utility.yul\":13301:13303   */\n      0x20\n        /* \"#utility.yul\":13290:13299   */\n      dup6\n        /* \"#utility.yul\":13286:13304   */\n      add\n        /* \"#utility.yul\":13273:13304   */\n      swap5\n      pop\n        /* \"#utility.yul\":13147:13151   */\n      0x20\n        /* \"#utility.yul\":13144:13145   */\n      dup2\n        /* \"#utility.yul\":13140:13152   */\n      add\n        /* \"#utility.yul\":13135:13152   */\n      swap1\n      pop\n        /* \"#utility.yul\":13110:13318   */\n      jump(tag_326)\n    tag_328:\n        /* \"#utility.yul\":13346:13352   */\n      dup7\n        /* \"#utility.yul\":13337:13344   */\n      dup4\n        /* \"#utility.yul\":13334:13353   */\n      lt\n        /* \"#utility.yul\":13331:13510   */\n      iszero\n      tag_329\n      jumpi\n        /* \"#utility.yul\":13404:13413   */\n      dup5\n        /* \"#utility.yul\":13399:13402   */\n      dup10\n        /* \"#utility.yul\":13395:13414   */\n      add\n        /* \"#utility.yul\":13389:13415   */\n      mload\n        /* \"#utility.yul\":13447:13495   */\n      tag_330\n        /* \"#utility.yul\":13489:13493   */\n      0x1f\n        /* \"#utility.yul\":13481:13487   */\n      dup10\n        /* \"#utility.yul\":13477:13494   */\n      and\n        /* \"#utility.yul\":13466:13475   */\n      dup3\n        /* \"#utility.yul\":13447:13495   */\n      tag_164\n      jump\t// in\n    tag_330:\n        /* \"#utility.yul\":13439:13445   */\n      dup4\n        /* \"#utility.yul\":13432:13496   */\n      sstore\n        /* \"#utility.yul\":13354:13510   */\n      pop\n        /* \"#utility.yul\":13331:13510   */\n    tag_329:\n        /* \"#utility.yul\":13556:13557   */\n      0x01\n        /* \"#utility.yul\":13552:13553   */\n      0x02\n        /* \"#utility.yul\":13544:13550   */\n      dup9\n        /* \"#utility.yul\":13540:13554   */\n      mul\n        /* \"#utility.yul\":13536:13558   */\n      add\n        /* \"#utility.yul\":13530:13534   */\n      dup9\n        /* \"#utility.yul\":13523:13559   */\n      sstore\n        /* \"#utility.yul\":12958:13569   */\n      pop\n      pop\n      pop\n        /* \"#utility.yul\":12921:13808   */\n    tag_321:\n      pop\n        /* \"#utility.yul\":12511:13814   */\n      pop\n      pop\n      pop\n        /* \"#utility.yul\":12419:13814   */\n      pop\n      pop\n      jump\t// out\n        /* \"#utility.yul\":13820:14000   */\n    tag_166:\n        /* \"#utility.yul\":13868:13945   */\n      0x4e487b7100000000000000000000000000000000000000000000000000000000\n        /* \"#utility.yul\":13865:13866   */\n      0x00\n        /* \"#utility.yul\":13858:13946   */\n      mstore\n        /* \"#utility.yul\":13965:13969   */\n      0x11\n        /* \"#utility.yul\":13962:13963   */\n      0x04\n        /* \"#utility.yul\":13955:13970   */\n      mstore\n        /* \"#utility.yul\":13989:13993   */\n      0x24\n        /* \"#utility.yul\":13986:13987   */\n      0x00\n        /* \"#utility.yul\":13979:13994   */\n      revert\n        /* \"#utility.yul\":14006:14239   */\n    tag_94:\n        /* \"#utility.yul\":14045:14048   */\n      0x00\n        /* \"#utility.yul\":14068:14092   */\n      tag_333\n        /* \"#utility.yul\":14086:14091   */\n      dup3\n        /* \"#utility.yul\":14068:14092   */\n      tag_127\n      jump\t// in\n    tag_333:\n        /* \"#utility.yul\":14059:14092   */\n      swap2\n      pop\n        /* \"#utility.yul\":14114:14180   */\n      0xffffffffffffffffffffffffffffffffffffffffffffffffffffffffffffffff\n        /* \"#utility.yul\":14107:14112   */\n      dup3\n        /* \"#utility.yul\":14104:14181   */\n      sub\n        /* \"#utility.yul\":14101:14204   */\n      tag_334\n      jumpi\n        /* \"#utility.yul\":14184:14202   */\n      tag_335\n      tag_166\n      jump\t// in\n    tag_335:\n        /* \"#utility.yul\":14101:14204   */\n    tag_334:\n        /* \"#utility.yul\":14231:14232   */\n      0x01\n        /* \"#utility.yul\":14224:14229   */\n      dup3\n        /* \"#utility.yul\":14220:14233   */\n      add\n        /* \"#utility.yul\":14213:14233   */\n      swap1\n      pop\n        /* \"#utility.yul\":14006:14239   */\n      swap2\n      swap1\n      pop\n      jump\t// out\n        /* \"#utility.yul\":14245:14425   */\n    tag_101:\n        /* \"#utility.yul\":14293:14370   */\n      0x4e487b7100000000000000000000000000000000000000000000000000000000\n        /* \"#utility.yul\":14290:14291   */\n      0x00\n        /* \"#utility.yul\":14283:14371   */\n      mstore\n        /* \"#utility.yul\":14390:14394   */\n      0x32\n        /* \"#utility.yul\":14387:14388   */\n      0x04\n        /* \"#utility.yul\":14380:14395   */\n      mstore\n        /* \"#utility.yul\":14414:14418   */\n      0x24\n        /* \"#utility.yul\":14411:14412   */\n      0x00\n        /* \"#utility.yul\":14404:14419   */\n      revert\n        /* \"#utility.yul\":14431:14611   */\n    tag_167:\n        /* \"#utility.yul\":14479:14556   */\n      0x4e487b7100000000000000000000000000000000000000000000000000000000\n        /* \"#utility.yul\":14476:14477   */\n      0x00\n        /* \"#utility.yul\":14469:14557   */\n      mstore\n        /* \"#utility.yul\":14576:14580   */\n      0x12\n        /* \"#utility.yul\":14573:14574   */\n      0x04\n        /* \"#utility.yul\":14566:14581   */\n      mstore\n        /* \"#utility.yul\":14600:14604   */\n      0x24\n        /* \"#utility.yul\":14597:14598   */\n      0x00\n        /* \"#utility.yul\":14590:14605   */\n      revert\n        /* \"#utility.yul\":14617:14802   */\n    tag_113:\n        /* \"#utility.yul\":14657:14658   */\n      0x00\n        /* \"#utility.yul\":14674:14694   */\n      tag_339\n        /* \"#utility.yul\":14692:14693   */\n      dup3\n        /* \"#utility.yul\":14674:14694   */\n      tag_127\n      jump\t// in\n    tag_339:\n        /* \"#utility.yul\":14669:14694   */\n      swap2\n      pop\n        /* \"#utility.yul\":14708:14728   */\n      tag_340\n        /* \"#utility.yul\":14726:14727   */\n      dup4\n        /* \"#utility.yul\":14708:14728   */\n      tag_127\n      jump\t// in\n    tag_340:\n        /* \"#utility.yul\":14703:14728   */\n      swap3\n      pop\n        /* \"#utility.yul\":14747:14748   */\n      dup3\n        /* \"#utility.yul\":14737:14772   */\n      tag_341\n      jumpi\n        /* \"#utility.yul\":14752:14770   */\n      tag_342\n      tag_167\n      jump\t// in\n    tag_342:\n        /* \"#utility.yul\":14737:14772   */\n    tag_341:\n        /* \"#utility.yul\":14794:14795   */\n      dup3\n        /* \"#utility.yul\":14791:14792   */\n      dup3\n        /* \"#utility.yul\":14787:14796   */\n      div\n        /* \"#utility.yul\":14782:14796   */\n      swap1\n      pop\n        /* \"#utility.yul\":14617:14802   */\n      swap3\n      swap2\n      pop\n      pop\n      jump\t// out\n\n    auxdata: 0xa26469706673582212202ddea2a6c611dbd0cdaf8ace125efb3b239676493f28166b0ef7e659e81c096464736f6c63430008110033\n}\n","bytecode":{"linkReferences":{},"object":"608060405230600660006101000a81548173ffffffffffffffffffffffffffffffffffffffff021916908373ffffffffffffffffffffffffffffffffffffffff1602179055503480156200005257600080fd5b50604051620013cf380380620013cf83398181016040528101906200007891906200016d565b80600160006101000a81548173ffffffffffffffffffffffffffffffffffffffff021916908373ffffffffffffffffffffffffffffffffffffffff160217905550816002819055505050620001b4565b600080fd5b6000819050919050565b620000e281620000cd565b8114620000ee57600080fd5b50565b6000815190506200010281620000d7565b92915050565b600073ffffffffffffffffffffffffffffffffffffffff82169050919050565b6000620001358262000108565b9050919050565b620001478162000128565b81146200015357600080fd5b50565b60008151905062000167816200013c565b92915050565b60008060408385031215620001875762000186620000c8565b5b60006200019785828601620000f1565b9250506020620001aa8582860162000156565b9150509250929050565b61120b80620001c46000396000f3fe6080604052600436106100c25760003560e01c80638a9cfd551161007f578063d7d1bbdb11610059578063d7d1bbdb14610253578063e7b668b41461027c578063f6b4dfb4146102a5578063fbfa4b7f146102d0576100c2565b80638a9cfd55146101f5578063937e09b11461021e578063d7bb99ba14610249576100c2565b80630a144391146100c75780633410452a146101045780634051ddac1461012f578063481c6a751461015e57806381d12c581461018957806382fde093146101ca575b600080fd5b3480156100d357600080fd5b506100ee60048036038101906100e991906109a9565b6102fb565b6040516100fb91906109f1565b60405180910390f35b34801561011057600080fd5b5061011961031b565b6040516101269190610a25565b60405180910390f35b34801561013b57600080fd5b50610144610327565b604051610155959493929190610a4f565b60405180910390f35b34801561016a57600080fd5b506101736103a9565b6040516101809190610aa2565b60405180910390f35b34801561019557600080fd5b506101b060048036038101906101ab9190610ae9565b6103cf565b6040516101c1959493929190610bc7565b60405180910390f35b3480156101d657600080fd5b506101df6104ca565b6040516101ec9190610a25565b60405180910390f35b34801561020157600080fd5b5061021c60048036038101906102179190610d82565b6104d0565b005b34801561022a57600080fd5b506102336105f0565b6040516102409190610a25565b60405180910390f35b6102516105f6565b005b34801561025f57600080fd5b5061027a60048036038101906102759190610ae9565b610676565b005b34801561028857600080fd5b506102a3600480360381019061029e9190610ae9565b6107c2565b005b3480156102b157600080fd5b506102ba61090b565b6040516102c79190610aa2565b60405180910390f35b3480156102dc57600080fd5b506102e5610931565b6040516102f29190610a25565b60405180910390f35b60036020528060005260406000206000915054906101000a900460ff1681565b60008080549050905090565b6000806000806000600254600660009054906101000a900473ffffffffffffffffffffffffffffffffffffffff1673ffffffffffffffffffffffffffffffffffffffff1631600080549050600454600160009054906101000a900473ffffffffffffffffffffffffffffffffffffffff16945094509450945094509091929394565b600160009054906101000a900473ffffffffffffffffffffffffffffffffffffffff1681565b600081815481106103df57600080fd5b906000526020600020906005020160009150905080600001805461040290610e20565b80601f016020809104026020016040519081016040528092919081815260200182805461042e90610e20565b801561047b5780601f106104505761010080835404028352916020019161047b565b820191906000526020600020905b81548152906001019060200180831161045e57829003601f168201915b5050505050908060010154908060020160009054906101000a900473ffffffffffffffffffffffffffffffffffffffff16908060020160149054906101000a900460ff16908060030154905085565b60045481565b600160009054906101000a900473ffffffffffffffffffffffffffffffffffffffff1673ffffffffffffffffffffffffffffffffffffffff163373ffffffffffffffffffffffffffffffffffffffff161461052a57600080fd5b60008060018160018154018082558091505003906000526020600020906005020190508381600001908161055e9190610ffd565b50828160010181905550818160020160006101000a81548173ffffffffffffffffffffffffffffffffffffffff021916908373ffffffffffffffffffffffffffffffffffffffff16021790555060008160020160146101000a81548160ff02191690831515021790555060008160030181905550600560008154809291906105e5906110fe565b919050555050505050565b60025481565b600254341161060457600080fd5b6001600360003373ffffffffffffffffffffffffffffffffffffffff1673ffffffffffffffffffffffffffffffffffffffff16815260200190815260200160002060006101000a81548160ff0219169083151502179055506004600081548092919061066f906110fe565b9190505550565b600080828154811061068b5761068a611146565b5b90600052602060002090600502019050600360003373ffffffffffffffffffffffffffffffffffffffff1673ffffffffffffffffffffffffffffffffffffffff16815260200190815260200160002060009054906101000a900460ff166106f157600080fd5b8060040160003373ffffffffffffffffffffffffffffffffffffffff1673ffffffffffffffffffffffffffffffffffffffff16815260200190815260200160002060009054906101000a900460ff161561074a57600080fd5b60018160040160003373ffffffffffffffffffffffffffffffffffffffff1673ffffffffffffffffffffffffffffffffffffffff16815260200190815260200160002060006101000a81548160ff0219169083151502179055508060030160008154809291906107b9906110fe565b91905055505050565b600160009054906101000a900473ffffffffffffffffffffffffffffffffffffffff1673ffffffffffffffffffffffffffffffffffffffff163373ffffffffffffffffffffffffffffffffffffffff161461081c57600080fd5b600080828154811061083157610830611146565b5b90600052602060002090600502019050600260045461085091906111a4565b81600301541161085f57600080fd5b8060020160149054906101000a900460ff161561087b57600080fd5b8060020160009054906101000a900473ffffffffffffffffffffffffffffffffffffffff1673ffffffffffffffffffffffffffffffffffffffff166108fc82600101549081150290604051600060405180830381858888f193505050501580156108e9573d6000803e3d6000fd5b5060018160020160146101000a81548160ff0219169083151502179055505050565b600660009054906101000a900473ffffffffffffffffffffffffffffffffffffffff1681565b60055481565b6000604051905090565b600080fd5b600080fd5b600073ffffffffffffffffffffffffffffffffffffffff82169050919050565b60006109768261094b565b9050919050565b6109868161096b565b811461099157600080fd5b50565b6000813590506109a38161097d565b92915050565b6000602082840312156109bf576109be610941565b5b60006109cd84828501610994565b91505092915050565b60008115159050919050565b6109eb816109d6565b82525050565b6000602082019050610a0660008301846109e2565b92915050565b6000819050919050565b610a1f81610a0c565b82525050565b6000602082019050610a3a6000830184610a16565b92915050565b610a498161096b565b82525050565b600060a082019050610a646000830188610a16565b610a716020830187610a16565b610a7e6040830186610a16565b610a8b6060830185610a16565b610a986080830184610a40565b9695505050505050565b6000602082019050610ab76000830184610a40565b92915050565b610ac681610a0c565b8114610ad157600080fd5b50565b600081359050610ae381610abd565b92915050565b600060208284031215610aff57610afe610941565b5b6000610b0d84828501610ad4565b91505092915050565b600081519050919050565b600082825260208201905092915050565b60005b83811015610b50578082015181840152602081019050610b35565b60008484015250505050565b6000601f19601f8301169050919050565b6000610b7882610b16565b610b828185610b21565b9350610b92818560208601610b32565b610b9b81610b5c565b840191505092915050565b6000610bb18261094b565b9050919050565b610bc181610ba6565b82525050565b600060a0820190508181036000830152610be18188610b6d565b9050610bf06020830187610a16565b610bfd6040830186610bb8565b610c0a60608301856109e2565b610c176080830184610a16565b9695505050505050565b600080fd5b600080fd5b7f4e487b7100000000000000000000000000000000000000000000000000000000600052604160045260246000fd5b610c6382610b5c565b810181811067ffffffffffffffff82111715610c8257610c81610c2b565b5b80604052505050565b6000610c95610937565b9050610ca18282610c5a565b919050565b600067ffffffffffffffff821115610cc157610cc0610c2b565b5b610cca82610b5c565b9050602081019050919050565b82818337600083830152505050565b6000610cf9610cf484610ca6565b610c8b565b905082815260208101848484011115610d1557610d14610c26565b5b610d20848285610cd7565b509392505050565b600082601f830112610d3d57610d3c610c21565b5b8135610d4d848260208601610ce6565b91505092915050565b610d5f81610ba6565b8114610d6a57600080fd5b50565b600081359050610d7c81610d56565b92915050565b600080600060608486031215610d9b57610d9a610941565b5b600084013567ffffffffffffffff811115610db957610db8610946565b5b610dc586828701610d28565b9350506020610dd686828701610ad4565b9250506040610de786828701610d6d565b9150509250925092565b7f4e487b7100000000000000000000000000000000000000000000000000000000600052602260045260246000fd5b60006002820490506001821680610e3857607f821691505b602082108103610e4b57610e4a610df1565b5b50919050565b60008190508160005260206000209050919050565b60006020601f8301049050919050565b600082821b905092915050565b600060088302610eb37fffffffffffffffffffffffffffffffffffffffffffffffffffffffffffffffff82610e76565b610ebd8683610e76565b95508019841693508086168417925050509392505050565b6000819050919050565b6000610efa610ef5610ef084610a0c565b610ed5565b610a0c565b9050919050565b6000819050919050565b610f1483610edf565b610f28610f2082610f01565b848454610e83565b825550505050565b600090565b610f3d610f30565b610f48818484610f0b565b505050565b5b81811015610f6c57610f61600082610f35565b600181019050610f4e565b5050565b601f821115610fb157610f8281610e51565b610f8b84610e66565b81016020851015610f9a578190505b610fae610fa685610e66565b830182610f4d565b50505b505050565b600082821c905092915050565b6000610fd460001984600802610fb6565b1980831691505092915050565b6000610fed8383610fc3565b9150826002028217905092915050565b61100682610b16565b67ffffffffffffffff81111561101f5761101e610c2b565b5b6110298254610e20565b611034828285610f70565b600060209050601f8311600181146110675760008415611055578287015190505b61105f8582610fe1565b8655506110c7565b601f19841661107586610e51565b60005b8281101561109d57848901518255600182019150602085019450602081019050611078565b868310156110ba57848901516110b6601f891682610fc3565b8355505b6001600288020188555050505b505050505050565b7f4e487b7100000000000000000000000000000000000000000000000000000000600052601160045260246000fd5b600061110982610a0c565b91507fffffffffffffffffffffffffffffffffffffffffffffffffffffffffffffffff820361113b5761113a6110cf565b5b600182019050919050565b7f4e487b7100000000000000000000000000000000000000000000000000000000600052603260045260246000fd5b7f4e487b7100000000000000000000000000000000000000000000000000000000600052601260045260246000fd5b60006111af82610a0c565b91506111ba83610a0c565b9250826111ca576111c9611175565b5b82820490509291505056fea26469706673582212202ddea2a6c611dbd0cdaf8ace125efb3b239676493f28166b0ef7e659e81c096464736f6c63430008110033","opcodes":"PUSH1 0x80 PUSH1 0x40 MSTORE ADDRESS PUSH1 0x6 PUSH1 0x0 PUSH2 0x100 EXP DUP2 SLOAD DUP2 PUSH20 0xFFFFFFFFFFFFFFFFFFFFFFFFFFFFFFFFFFFFFFFF MUL NOT AND SWAP1 DUP4 PUSH20 0xFFFFFFFFFFFFFFFFFFFFFFFFFFFFFFFFFFFFFFFF AND MUL OR SWAP1 SSTORE POP CALLVALUE DUP1 ISZERO PUSH3 0x52 JUMPI PUSH1 0x0 DUP1 REVERT JUMPDEST POP PUSH1 0x40 MLOAD PUSH3 0x13CF CODESIZE SUB DUP1 PUSH3 0x13CF DUP4 CODECOPY DUP2 DUP2 ADD PUSH1 0x40 MSTORE DUP2 ADD SWAP1 PUSH3 0x78 SWAP2 SWAP1 PUSH3 0x16D JUMP JUMPDEST DUP1 PUSH1 0x1 PUSH1 0x0 PUSH2 0x100 EXP DUP2 SLOAD DUP2 PUSH20 0xFFFFFFFFFFFFFFFFFFFFFFFFFFFFFFFFFFFFFFFF MUL NOT AND SWAP1 DUP4 PUSH20 0xFFFFFFFFFFFFFFFFFFFFFFFFFFFFFFFFFFFFFFFF AND MUL OR SWAP1 SSTORE POP DUP2 PUSH1 0x2 DUP2 SWAP1 SSTORE POP POP POP PUSH3 0x1B4 JUMP JUMPDEST PUSH1 0x0 DUP1 REVERT JUMPDEST PUSH1 0x0 DUP2 SWAP1 POP SWAP2 SWAP1 POP JUMP JUMPDEST PUSH3 0xE2 DUP2 PUSH3 0xCD JUMP JUMPDEST DUP2 EQ PUSH3 0xEE JUMPI PUSH1 0x0 DUP1 REVERT JUMPDEST POP JUMP JUMPDEST PUSH1 0x0 DUP2 MLOAD SWAP1 POP PUSH3 0x102 DUP2 PUSH3 0xD7 JUMP JUMPDEST SWAP3 SWAP2 POP POP JUMP JUMPDEST PUSH1 0x0 PUSH20 0xFFFFFFFFFFFFFFFFFFFFFFFFFFFFFFFFFFFFFFFF DUP3 AND SWAP1 POP SWAP2 SWAP1 POP JUMP JUMPDEST PUSH1 0x0 PUSH3 0x135 DUP3 PUSH3 0x108 JUMP JUMPDEST SWAP1 POP SWAP2 SWAP1 POP JUMP JUMPDEST PUSH3 0x147 DUP2 PUSH3 0x128 JUMP JUMPDEST DUP2 EQ PUSH3 0x153 JUMPI PUSH1 0x0 DUP1 REVERT JUMPDEST POP JUMP JUMPDEST PUSH1 0x0 DUP2 MLOAD SWAP1 POP PUSH3 0x167 DUP2 PUSH3 0x13C JUMP JUMPDEST SWAP3 SWAP2 POP POP JUMP JUMPDEST PUSH1 0x0 DUP1 PUSH1 0x40 DUP4 DUP6 SUB SLT ISZERO PUSH3 0x187 JUMPI PUSH3 0x186 PUSH3 0xC8 JUMP JUMPDEST JUMPDEST PUSH1 0x0 PUSH3 0x197 DUP6 DUP3 DUP7 ADD PUSH3 0xF1 JUMP JUMPDEST SWAP3 POP POP PUSH1 0x20 PUSH3 0x1AA DUP6 DUP3 DUP7 ADD PUSH3 0x156 JUMP JUMPDEST SWAP2 POP POP SWAP3 POP SWAP3 SWAP1 POP JUMP JUMPDEST PUSH2 0x120B DUP1 PUSH3 0x1C4 PUSH1 0x0 CODECOPY PUSH1 0x0 RETURN INVALID PUSH1 0x80 PUSH1 0x40 MSTORE PUSH1 0x4 CALLDATASIZE LT PUSH2 0xC2 JUMPI PUSH1 0x0 CALLDATALOAD PUSH1 0xE0 SHR DUP1 PUSH4 0x8A9CFD55 GT PUSH2 0x7F JUMPI DUP1 PUSH4 0xD7D1BBDB GT PUSH2 0x59 JUMPI DUP1 PUSH4 0xD7D1BBDB EQ PUSH2 0x253 JUMPI DUP1 PUSH4 0xE7B668B4 EQ PUSH2 0x27C JUMPI DUP1 PUSH4 0xF6B4DFB4 EQ PUSH2 0x2A5 JUMPI DUP1 PUSH4 0xFBFA4B7F EQ PUSH2 0x2D0 JUMPI PUSH2 0xC2 JUMP JUMPDEST DUP1 PUSH4 0x8A9CFD55 EQ PUSH2 0x1F5 JUMPI DUP1 PUSH4 0x937E09B1 EQ PUSH2 0x21E JUMPI DUP1 PUSH4 0xD7BB99BA EQ PUSH2 0x249 JUMPI PUSH2 0xC2 JUMP JUMPDEST DUP1 PUSH4 0xA144391 EQ PUSH2 0xC7 JUMPI DUP1 PUSH4 0x3410452A EQ PUSH2 0x104 JUMPI DUP1 PUSH4 0x4051DDAC EQ PUSH2 0x12F JUMPI DUP1 PUSH4 0x481C6A75 EQ PUSH2 0x15E JUMPI DUP1 PUSH4 0x81D12C58 EQ PUSH2 0x189 JUMPI DUP1 PUSH4 0x82FDE093 EQ PUSH2 0x1CA JUMPI JUMPDEST PUSH1 0x0 DUP1 REVERT JUMPDEST CALLVALUE DUP1 ISZERO PUSH2 0xD3 JUMPI PUSH1 0x0 DUP1 REVERT JUMPDEST POP PUSH2 0xEE PUSH1 0x4 DUP1 CALLDATASIZE SUB DUP2 ADD SWAP1 PUSH2 0xE9 SWAP2 SWAP1 PUSH2 0x9A9 JUMP JUMPDEST PUSH2 0x2FB JUMP JUMPDEST PUSH1 0x40 MLOAD PUSH2 0xFB SWAP2 SWAP1 PUSH2 0x9F1 JUMP JUMPDEST PUSH1 0x40 MLOAD DUP1 SWAP2 SUB SWAP1 RETURN JUMPDEST CALLVALUE DUP1 ISZERO PUSH2 0x110 JUMPI PUSH1 0x0 DUP1 REVERT JUMPDEST POP PUSH2 0x119 PUSH2 0x31B JUMP JUMPDEST PUSH1 0x40 MLOAD PUSH2 0x126 SWAP2 SWAP1 PUSH2 0xA25 JUMP JUMPDEST PUSH1 0x40 MLOAD DUP1 SWAP2 SUB SWAP1 RETURN JUMPDEST CALLVALUE DUP1 ISZERO PUSH2 0x13B JUMPI PUSH1 0x0 DUP1 REVERT JUMPDEST POP PUSH2 0x144 PUSH2 0x327 JUMP JUMPDEST PUSH1 0x40 MLOAD PUSH2 0x155 SWAP6 SWAP5 SWAP4 SWAP3 SWAP2 SWAP1 PUSH2 0xA4F JUMP JUMPDEST PUSH1 0x40 MLOAD DUP1 SWAP2 SUB SWAP1 RETURN JUMPDEST CALLVALUE DUP1 ISZERO PUSH2 0x16A JUMPI PUSH1 0x0 DUP1 REVERT JUMPDEST POP PUSH2 0x173 PUSH2 0x3A9 JUMP JUMPDEST PUSH1 0x40 MLOAD PUSH2 0x180 SWAP2 SWAP1 PUSH2 0xAA2 JUMP JUMPDEST PUSH1 0x40 MLOAD DUP1 SWAP2 SUB SWAP1 RETURN JUMPDEST CALLVALUE DUP1 ISZERO PUSH2 0x195 JUMPI PUSH1 0x0 DUP1 REVERT JUMPDEST POP PUSH2 0x1B0 PUSH1 0x4 DUP1 CALLDATASIZE SUB DUP2 ADD SWAP1 PUSH2 0x1AB SWAP2 SWAP1 PUSH2 0xAE9 JUMP JUMPDEST PUSH2 0x3CF JUMP JUMPDEST PUSH1 0x40 MLOAD PUSH2 0x1C1 SWAP6 SWAP5 SWAP4 SWAP3 SWAP2 SWAP1 PUSH2 0xBC7 JUMP JUMPDEST PUSH1 0x40 MLOAD DUP1 SWAP2 SUB SWAP1 RETURN JUMPDEST CALLVALUE DUP1 ISZERO PUSH2 0x1D6 JUMPI PUSH1 0x0 DUP1 REVERT JUMPDEST POP PUSH2 0x1DF PUSH2 0x4CA JUMP JUMPDEST PUSH1 0x40 MLOAD PUSH2 0x1EC SWAP2 SWAP1 PUSH2 0xA25 JUMP JUMPDEST PUSH1 0x40 MLOAD DUP1 SWAP2 SUB SWAP1 RETURN JUMPDEST CALLVALUE DUP1 ISZERO PUSH2 0x201 JUMPI PUSH1 0x0 DUP1 REVERT JUMPDEST POP PUSH2 0x21C PUSH1 0x4 DUP1 CALLDATASIZE SUB DUP2 ADD SWAP1 PUSH2 0x217 SWAP2 SWAP1 PUSH2 0xD82 JUMP JUMPDEST PUSH2 0x4D0 JUMP JUMPDEST STOP JUMPDEST CALLVALUE DUP1 ISZERO PUSH2 0x22A JUMPI PUSH1 0x0 DUP1 REVERT JUMPDEST POP PUSH2 0x233 PUSH2 0x5F0 JUMP JUMPDEST PUSH1 0x40 MLOAD PUSH2 0x240 SWAP2 SWAP1 PUSH2 0xA25 JUMP JUMPDEST PUSH1 0x40 MLOAD DUP1 SWAP2 SUB SWAP1 RETURN JUMPDEST PUSH2 0x251 PUSH2 0x5F6 JUMP JUMPDEST STOP JUMPDEST CALLVALUE DUP1 ISZERO PUSH2 0x25F JUMPI PUSH1 0x0 DUP1 REVERT JUMPDEST POP PUSH2 0x27A PUSH1 0x4 DUP1 CALLDATASIZE SUB DUP2 ADD SWAP1 PUSH2 0x275 SWAP2 SWAP1 PUSH2 0xAE9 JUMP JUMPDEST PUSH2 0x676 JUMP JUMPDEST STOP JUMPDEST CALLVALUE DUP1 ISZERO PUSH2 0x288 JUMPI PUSH1 0x0 DUP1 REVERT JUMPDEST POP PUSH2 0x2A3 PUSH1 0x4 DUP1 CALLDATASIZE SUB DUP2 ADD SWAP1 PUSH2 0x29E SWAP2 SWAP1 PUSH2 0xAE9 JUMP JUMPDEST PUSH2 0x7C2 JUMP JUMPDEST STOP JUMPDEST CALLVALUE DUP1 ISZERO PUSH2 0x2B1 JUMPI PUSH1 0x0 DUP1 REVERT JUMPDEST POP PUSH2 0x2BA PUSH2 0x90B JUMP JUMPDEST PUSH1 0x40 MLOAD PUSH2 0x2C7 SWAP2 SWAP1 PUSH2 0xAA2 JUMP JUMPDEST PUSH1 0x40 MLOAD DUP1 SWAP2 SUB SWAP1 RETURN JUMPDEST CALLVALUE DUP1 ISZERO PUSH2 0x2DC JUMPI PUSH1 0x0 DUP1 REVERT JUMPDEST POP PUSH2 0x2E5 PUSH2 0x931 JUMP JUMPDEST PUSH1 0x40 MLOAD PUSH2 0x2F2 SWAP2 SWAP1 PUSH2 0xA25 JUMP JUMPDEST PUSH1 0x40 MLOAD DUP1 SWAP2 SUB SWAP1 RETURN JUMPDEST PUSH1 0x3 PUSH1 0x20 MSTORE DUP1 PUSH1 0x0 MSTORE PUSH1 0x40 PUSH1 0x0 KECCAK256 PUSH1 0x0 SWAP2 POP SLOAD SWAP1 PUSH2 0x100 EXP SWAP1 DIV PUSH1 0xFF AND DUP2 JUMP JUMPDEST PUSH1 0x0 DUP1 DUP1 SLOAD SWAP1 POP SWAP1 POP SWAP1 JUMP JUMPDEST PUSH1 0x0 DUP1 PUSH1 0x0 DUP1 PUSH1 0x0 PUSH1 0x2 SLOAD PUSH1 0x6 PUSH1 0x0 SWAP1 SLOAD SWAP1 PUSH2 0x100 EXP SWAP1 DIV PUSH20 0xFFFFFFFFFFFFFFFFFFFFFFFFFFFFFFFFFFFFFFFF AND PUSH20 0xFFFFFFFFFFFFFFFFFFFFFFFFFFFFFFFFFFFFFFFF AND BALANCE PUSH1 0x0 DUP1 SLOAD SWAP1 POP PUSH1 0x4 SLOAD PUSH1 0x1 PUSH1 0x0 SWAP1 SLOAD SWAP1 PUSH2 0x100 EXP SWAP1 DIV PUSH20 0xFFFFFFFFFFFFFFFFFFFFFFFFFFFFFFFFFFFFFFFF AND SWAP5 POP SWAP5 POP SWAP5 POP SWAP5 POP SWAP5 POP SWAP1 SWAP2 SWAP3 SWAP4 SWAP5 JUMP JUMPDEST PUSH1 0x1 PUSH1 0x0 SWAP1 SLOAD SWAP1 PUSH2 0x100 EXP SWAP1 DIV PUSH20 0xFFFFFFFFFFFFFFFFFFFFFFFFFFFFFFFFFFFFFFFF AND DUP2 JUMP JUMPDEST PUSH1 0x0 DUP2 DUP2 SLOAD DUP2 LT PUSH2 0x3DF JUMPI PUSH1 0x0 DUP1 REVERT JUMPDEST SWAP1 PUSH1 0x0 MSTORE PUSH1 0x20 PUSH1 0x0 KECCAK256 SWAP1 PUSH1 0x5 MUL ADD PUSH1 0x0 SWAP2 POP SWAP1 POP DUP1 PUSH1 0x0 ADD DUP1 SLOAD PUSH2 0x402 SWAP1 PUSH2 0xE20 JUMP JUMPDEST DUP1 PUSH1 0x1F ADD PUSH1 0x20 DUP1 SWAP2 DIV MUL PUSH1 0x20 ADD PUSH1 0x40 MLOAD SWAP1 DUP2 ADD PUSH1 0x40 MSTORE DUP1 SWAP3 SWAP2 SWAP1 DUP2 DUP2 MSTORE PUSH1 0x20 ADD DUP3 DUP1 SLOAD PUSH2 0x42E SWAP1 PUSH2 0xE20 JUMP JUMPDEST DUP1 ISZERO PUSH2 0x47B JUMPI DUP1 PUSH1 0x1F LT PUSH2 0x450 JUMPI PUSH2 0x100 DUP1 DUP4 SLOAD DIV MUL DUP4 MSTORE SWAP2 PUSH1 0x20 ADD SWAP2 PUSH2 0x47B JUMP JUMPDEST DUP3 ADD SWAP2 SWAP1 PUSH1 0x0 MSTORE PUSH1 0x20 PUSH1 0x0 KECCAK256 SWAP1 JUMPDEST DUP2 SLOAD DUP2 MSTORE SWAP1 PUSH1 0x1 ADD SWAP1 PUSH1 0x20 ADD DUP1 DUP4 GT PUSH2 0x45E JUMPI DUP3 SWAP1 SUB PUSH1 0x1F AND DUP3 ADD SWAP2 JUMPDEST POP POP POP POP POP SWAP1 DUP1 PUSH1 0x1 ADD SLOAD SWAP1 DUP1 PUSH1 0x2 ADD PUSH1 0x0 SWAP1 SLOAD SWAP1 PUSH2 0x100 EXP SWAP1 DIV PUSH20 0xFFFFFFFFFFFFFFFFFFFFFFFFFFFFFFFFFFFFFFFF AND SWAP1 DUP1 PUSH1 0x2 ADD PUSH1 0x14 SWAP1 SLOAD SWAP1 PUSH2 0x100 EXP SWAP1 DIV PUSH1 0xFF AND SWAP1 DUP1 PUSH1 0x3 ADD SLOAD SWAP1 POP DUP6 JUMP JUMPDEST PUSH1 0x4 SLOAD DUP2 JUMP JUMPDEST PUSH1 0x1 PUSH1 0x0 SWAP1 SLOAD SWAP1 PUSH2 0x100 EXP SWAP1 DIV PUSH20 0xFFFFFFFFFFFFFFFFFFFFFFFFFFFFFFFFFFFFFFFF AND PUSH20 0xFFFFFFFFFFFFFFFFFFFFFFFFFFFFFFFFFFFFFFFF AND CALLER PUSH20 0xFFFFFFFFFFFFFFFFFFFFFFFFFFFFFFFFFFFFFFFF AND EQ PUSH2 0x52A JUMPI PUSH1 0x0 DUP1 REVERT JUMPDEST PUSH1 0x0 DUP1 PUSH1 0x1 DUP2 PUSH1 0x1 DUP2 SLOAD ADD DUP1 DUP3 SSTORE DUP1 SWAP2 POP POP SUB SWAP1 PUSH1 0x0 MSTORE PUSH1 0x20 PUSH1 0x0 KECCAK256 SWAP1 PUSH1 0x5 MUL ADD SWAP1 POP DUP4 DUP2 PUSH1 0x0 ADD SWAP1 DUP2 PUSH2 0x55E SWAP2 SWAP1 PUSH2 0xFFD JUMP JUMPDEST POP DUP3 DUP2 PUSH1 0x1 ADD DUP2 SWAP1 SSTORE POP DUP2 DUP2 PUSH1 0x2 ADD PUSH1 0x0 PUSH2 0x100 EXP DUP2 SLOAD DUP2 PUSH20 0xFFFFFFFFFFFFFFFFFFFFFFFFFFFFFFFFFFFFFFFF MUL NOT AND SWAP1 DUP4 PUSH20 0xFFFFFFFFFFFFFFFFFFFFFFFFFFFFFFFFFFFFFFFF AND MUL OR SWAP1 SSTORE POP PUSH1 0x0 DUP2 PUSH1 0x2 ADD PUSH1 0x14 PUSH2 0x100 EXP DUP2 SLOAD DUP2 PUSH1 0xFF MUL NOT AND SWAP1 DUP4 ISZERO ISZERO MUL OR SWAP1 SSTORE POP PUSH1 0x0 DUP2 PUSH1 0x3 ADD DUP2 SWAP1 SSTORE POP PUSH1 0x5 PUSH1 0x0 DUP2 SLOAD DUP1 SWAP3 SWAP2 SWAP1 PUSH2 0x5E5 SWAP1 PUSH2 0x10FE JUMP JUMPDEST SWAP2 SWAP1 POP SSTORE POP POP POP POP POP JUMP JUMPDEST PUSH1 0x2 SLOAD DUP2 JUMP JUMPDEST PUSH1 0x2 SLOAD CALLVALUE GT PUSH2 0x604 JUMPI PUSH1 0x0 DUP1 REVERT JUMPDEST PUSH1 0x1 PUSH1 0x3 PUSH1 0x0 CALLER PUSH20 0xFFFFFFFFFFFFFFFFFFFFFFFFFFFFFFFFFFFFFFFF AND PUSH20 0xFFFFFFFFFFFFFFFFFFFFFFFFFFFFFFFFFFFFFFFF AND DUP2 MSTORE PUSH1 0x20 ADD SWAP1 DUP2 MSTORE PUSH1 0x20 ADD PUSH1 0x0 KECCAK256 PUSH1 0x0 PUSH2 0x100 EXP DUP2 SLOAD DUP2 PUSH1 0xFF MUL NOT AND SWAP1 DUP4 ISZERO ISZERO MUL OR SWAP1 SSTORE POP PUSH1 0x4 PUSH1 0x0 DUP2 SLOAD DUP1 SWAP3 SWAP2 SWAP1 PUSH2 0x66F SWAP1 PUSH2 0x10FE JUMP JUMPDEST SWAP2 SWAP1 POP SSTORE POP JUMP JUMPDEST PUSH1 0x0 DUP1 DUP3 DUP2 SLOAD DUP2 LT PUSH2 0x68B JUMPI PUSH2 0x68A PUSH2 0x1146 JUMP JUMPDEST JUMPDEST SWAP1 PUSH1 0x0 MSTORE PUSH1 0x20 PUSH1 0x0 KECCAK256 SWAP1 PUSH1 0x5 MUL ADD SWAP1 POP PUSH1 0x3 PUSH1 0x0 CALLER PUSH20 0xFFFFFFFFFFFFFFFFFFFFFFFFFFFFFFFFFFFFFFFF AND PUSH20 0xFFFFFFFFFFFFFFFFFFFFFFFFFFFFFFFFFFFFFFFF AND DUP2 MSTORE PUSH1 0x20 ADD SWAP1 DUP2 MSTORE PUSH1 0x20 ADD PUSH1 0x0 KECCAK256 PUSH1 0x0 SWAP1 SLOAD SWAP1 PUSH2 0x100 EXP SWAP1 DIV PUSH1 0xFF AND PUSH2 0x6F1 JUMPI PUSH1 0x0 DUP1 REVERT JUMPDEST DUP1 PUSH1 0x4 ADD PUSH1 0x0 CALLER PUSH20 0xFFFFFFFFFFFFFFFFFFFFFFFFFFFFFFFFFFFFFFFF AND PUSH20 0xFFFFFFFFFFFFFFFFFFFFFFFFFFFFFFFFFFFFFFFF AND DUP2 MSTORE PUSH1 0x20 ADD SWAP1 DUP2 MSTORE PUSH1 0x20 ADD PUSH1 0x0 KECCAK256 PUSH1 0x0 SWAP1 SLOAD SWAP1 PUSH2 0x100 EXP SWAP1 DIV PUSH1 0xFF AND ISZERO PUSH2 0x74A JUMPI PUSH1 0x0 DUP1 REVERT JUMPDEST PUSH1 0x1 DUP2 PUSH1 0x4 ADD PUSH1 0x0 CALLER PUSH20 0xFFFFFFFFFFFFFFFFFFFFFFFFFFFFFFFFFFFFFFFF AND PUSH20 0xFFFFFFFFFFFFFFFFFFFFFFFFFFFFFFFFFFFFFFFF AND DUP2 MSTORE PUSH1 0x20 ADD SWAP1 DUP2 MSTORE PUSH1 0x20 ADD PUSH1 0x0 KECCAK256 PUSH1 0x0 PUSH2 0x100 EXP DUP2 SLOAD DUP2 PUSH1 0xFF MUL NOT AND SWAP1 DUP4 ISZERO ISZERO MUL OR SWAP1 SSTORE POP DUP1 PUSH1 0x3 ADD PUSH1 0x0 DUP2 SLOAD DUP1 SWAP3 SWAP2 SWAP1 PUSH2 0x7B9 SWAP1 PUSH2 0x10FE JUMP JUMPDEST SWAP2 SWAP1 POP SSTORE POP POP POP JUMP JUMPDEST PUSH1 0x1 PUSH1 0x0 SWAP1 SLOAD SWAP1 PUSH2 0x100 EXP SWAP1 DIV PUSH20 0xFFFFFFFFFFFFFFFFFFFFFFFFFFFFFFFFFFFFFFFF AND PUSH20 0xFFFFFFFFFFFFFFFFFFFFFFFFFFFFFFFFFFFFFFFF AND CALLER PUSH20 0xFFFFFFFFFFFFFFFFFFFFFFFFFFFFFFFFFFFFFFFF AND EQ PUSH2 0x81C JUMPI PUSH1 0x0 DUP1 REVERT JUMPDEST PUSH1 0x0 DUP1 DUP3 DUP2 SLOAD DUP2 LT PUSH2 0x831 JUMPI PUSH2 0x830 PUSH2 0x1146 JUMP JUMPDEST JUMPDEST SWAP1 PUSH1 0x0 MSTORE PUSH1 0x20 PUSH1 0x0 KECCAK256 SWAP1 PUSH1 0x5 MUL ADD SWAP1 POP PUSH1 0x2 PUSH1 0x4 SLOAD PUSH2 0x850 SWAP2 SWAP1 PUSH2 0x11A4 JUMP JUMPDEST DUP2 PUSH1 0x3 ADD SLOAD GT PUSH2 0x85F JUMPI PUSH1 0x0 DUP1 REVERT JUMPDEST DUP1 PUSH1 0x2 ADD PUSH1 0x14 SWAP1 SLOAD SWAP1 PUSH2 0x100 EXP SWAP1 DIV PUSH1 0xFF AND ISZERO PUSH2 0x87B JUMPI PUSH1 0x0 DUP1 REVERT JUMPDEST DUP1 PUSH1 0x2 ADD PUSH1 0x0 SWAP1 SLOAD SWAP1 PUSH2 0x100 EXP SWAP1 DIV PUSH20 0xFFFFFFFFFFFFFFFFFFFFFFFFFFFFFFFFFFFFFFFF AND PUSH20 0xFFFFFFFFFFFFFFFFFFFFFFFFFFFFFFFFFFFFFFFF AND PUSH2 0x8FC DUP3 PUSH1 0x1 ADD SLOAD SWAP1 DUP2 ISZERO MUL SWAP1 PUSH1 0x40 MLOAD PUSH1 0x0 PUSH1 0x40 MLOAD DUP1 DUP4 SUB DUP2 DUP6 DUP9 DUP9 CALL SWAP4 POP POP POP POP ISZERO DUP1 ISZERO PUSH2 0x8E9 JUMPI RETURNDATASIZE PUSH1 0x0 DUP1 RETURNDATACOPY RETURNDATASIZE PUSH1 0x0 REVERT JUMPDEST POP PUSH1 0x1 DUP2 PUSH1 0x2 ADD PUSH1 0x14 PUSH2 0x100 EXP DUP2 SLOAD DUP2 PUSH1 0xFF MUL NOT AND SWAP1 DUP4 ISZERO ISZERO MUL OR SWAP1 SSTORE POP POP POP JUMP JUMPDEST PUSH1 0x6 PUSH1 0x0 SWAP1 SLOAD SWAP1 PUSH2 0x100 EXP SWAP1 DIV PUSH20 0xFFFFFFFFFFFFFFFFFFFFFFFFFFFFFFFFFFFFFFFF AND DUP2 JUMP JUMPDEST PUSH1 0x5 SLOAD DUP2 JUMP JUMPDEST PUSH1 0x0 PUSH1 0x40 MLOAD SWAP1 POP SWAP1 JUMP JUMPDEST PUSH1 0x0 DUP1 REVERT JUMPDEST PUSH1 0x0 DUP1 REVERT JUMPDEST PUSH1 0x0 PUSH20 0xFFFFFFFFFFFFFFFFFFFFFFFFFFFFFFFFFFFFFFFF DUP3 AND SWAP1 POP SWAP2 SWAP1 POP JUMP JUMPDEST PUSH1 0x0 PUSH2 0x976 DUP3 PUSH2 0x94B JUMP JUMPDEST SWAP1 POP SWAP2 SWAP1 POP JUMP JUMPDEST PUSH2 0x986 DUP2 PUSH2 0x96B JUMP JUMPDEST DUP2 EQ PUSH2 0x991 JUMPI PUSH1 0x0 DUP1 REVERT JUMPDEST POP JUMP JUMPDEST PUSH1 0x0 DUP2 CALLDATALOAD SWAP1 POP PUSH2 0x9A3 DUP2 PUSH2 0x97D JUMP JUMPDEST SWAP3 SWAP2 POP POP JUMP JUMPDEST PUSH1 0x0 PUSH1 0x20 DUP3 DUP5 SUB SLT ISZERO PUSH2 0x9BF JUMPI PUSH2 0x9BE PUSH2 0x941 JUMP JUMPDEST JUMPDEST PUSH1 0x0 PUSH2 0x9CD DUP5 DUP3 DUP6 ADD PUSH2 0x994 JUMP JUMPDEST SWAP2 POP POP SWAP3 SWAP2 POP POP JUMP JUMPDEST PUSH1 0x0 DUP2 ISZERO ISZERO SWAP1 POP SWAP2 SWAP1 POP JUMP JUMPDEST PUSH2 0x9EB DUP2 PUSH2 0x9D6 JUMP JUMPDEST DUP3 MSTORE POP POP JUMP JUMPDEST PUSH1 0x0 PUSH1 0x20 DUP3 ADD SWAP1 POP PUSH2 0xA06 PUSH1 0x0 DUP4 ADD DUP5 PUSH2 0x9E2 JUMP JUMPDEST SWAP3 SWAP2 POP POP JUMP JUMPDEST PUSH1 0x0 DUP2 SWAP1 POP SWAP2 SWAP1 POP JUMP JUMPDEST PUSH2 0xA1F DUP2 PUSH2 0xA0C JUMP JUMPDEST DUP3 MSTORE POP POP JUMP JUMPDEST PUSH1 0x0 PUSH1 0x20 DUP3 ADD SWAP1 POP PUSH2 0xA3A PUSH1 0x0 DUP4 ADD DUP5 PUSH2 0xA16 JUMP JUMPDEST SWAP3 SWAP2 POP POP JUMP JUMPDEST PUSH2 0xA49 DUP2 PUSH2 0x96B JUMP JUMPDEST DUP3 MSTORE POP POP JUMP JUMPDEST PUSH1 0x0 PUSH1 0xA0 DUP3 ADD SWAP1 POP PUSH2 0xA64 PUSH1 0x0 DUP4 ADD DUP9 PUSH2 0xA16 JUMP JUMPDEST PUSH2 0xA71 PUSH1 0x20 DUP4 ADD DUP8 PUSH2 0xA16 JUMP JUMPDEST PUSH2 0xA7E PUSH1 0x40 DUP4 ADD DUP7 PUSH2 0xA16 JUMP JUMPDEST PUSH2 0xA8B PUSH1 0x60 DUP4 ADD DUP6 PUSH2 0xA16 JUMP JUMPDEST PUSH2 0xA98 PUSH1 0x80 DUP4 ADD DUP5 PUSH2 0xA40 JUMP JUMPDEST SWAP7 SWAP6 POP POP POP POP POP POP JUMP JUMPDEST PUSH1 0x0 PUSH1 0x20 DUP3 ADD SWAP1 POP PUSH2 0xAB7 PUSH1 0x0 DUP4 ADD DUP5 PUSH2 0xA40 JUMP JUMPDEST SWAP3 SWAP2 POP POP JUMP JUMPDEST PUSH2 0xAC6 DUP2 PUSH2 0xA0C JUMP JUMPDEST DUP2 EQ PUSH2 0xAD1 JUMPI PUSH1 0x0 DUP1 REVERT JUMPDEST POP JUMP JUMPDEST PUSH1 0x0 DUP2 CALLDATALOAD SWAP1 POP PUSH2 0xAE3 DUP2 PUSH2 0xABD JUMP JUMPDEST SWAP3 SWAP2 POP POP JUMP JUMPDEST PUSH1 0x0 PUSH1 0x20 DUP3 DUP5 SUB SLT ISZERO PUSH2 0xAFF JUMPI PUSH2 0xAFE PUSH2 0x941 JUMP JUMPDEST JUMPDEST PUSH1 0x0 PUSH2 0xB0D DUP5 DUP3 DUP6 ADD PUSH2 0xAD4 JUMP JUMPDEST SWAP2 POP POP SWAP3 SWAP2 POP POP JUMP JUMPDEST PUSH1 0x0 DUP2 MLOAD SWAP1 POP SWAP2 SWAP1 POP JUMP JUMPDEST PUSH1 0x0 DUP3 DUP3 MSTORE PUSH1 0x20 DUP3 ADD SWAP1 POP SWAP3 SWAP2 POP POP JUMP JUMPDEST PUSH1 0x0 JUMPDEST DUP4 DUP2 LT ISZERO PUSH2 0xB50 JUMPI DUP1 DUP3 ADD MLOAD DUP2 DUP5 ADD MSTORE PUSH1 0x20 DUP2 ADD SWAP1 POP PUSH2 0xB35 JUMP JUMPDEST PUSH1 0x0 DUP5 DUP5 ADD MSTORE POP POP POP POP JUMP JUMPDEST PUSH1 0x0 PUSH1 0x1F NOT PUSH1 0x1F DUP4 ADD AND SWAP1 POP SWAP2 SWAP1 POP JUMP JUMPDEST PUSH1 0x0 PUSH2 0xB78 DUP3 PUSH2 0xB16 JUMP JUMPDEST PUSH2 0xB82 DUP2 DUP6 PUSH2 0xB21 JUMP JUMPDEST SWAP4 POP PUSH2 0xB92 DUP2 DUP6 PUSH1 0x20 DUP7 ADD PUSH2 0xB32 JUMP JUMPDEST PUSH2 0xB9B DUP2 PUSH2 0xB5C JUMP JUMPDEST DUP5 ADD SWAP2 POP POP SWAP3 SWAP2 POP POP JUMP JUMPDEST PUSH1 0x0 PUSH2 0xBB1 DUP3 PUSH2 0x94B JUMP JUMPDEST SWAP1 POP SWAP2 SWAP1 POP JUMP JUMPDEST PUSH2 0xBC1 DUP2 PUSH2 0xBA6 JUMP JUMPDEST DUP3 MSTORE POP POP JUMP JUMPDEST PUSH1 0x0 PUSH1 0xA0 DUP3 ADD SWAP1 POP DUP2 DUP2 SUB PUSH1 0x0 DUP4 ADD MSTORE PUSH2 0xBE1 DUP2 DUP9 PUSH2 0xB6D JUMP JUMPDEST SWAP1 POP PUSH2 0xBF0 PUSH1 0x20 DUP4 ADD DUP8 PUSH2 0xA16 JUMP JUMPDEST PUSH2 0xBFD PUSH1 0x40 DUP4 ADD DUP7 PUSH2 0xBB8 JUMP JUMPDEST PUSH2 0xC0A PUSH1 0x60 DUP4 ADD DUP6 PUSH2 0x9E2 JUMP JUMPDEST PUSH2 0xC17 PUSH1 0x80 DUP4 ADD DUP5 PUSH2 0xA16 JUMP JUMPDEST SWAP7 SWAP6 POP POP POP POP POP POP JUMP JUMPDEST PUSH1 0x0 DUP1 REVERT JUMPDEST PUSH1 0x0 DUP1 REVERT JUMPDEST PUSH32 0x4E487B7100000000000000000000000000000000000000000000000000000000 PUSH1 0x0 MSTORE PUSH1 0x41 PUSH1 0x4 MSTORE PUSH1 0x24 PUSH1 0x0 REVERT JUMPDEST PUSH2 0xC63 DUP3 PUSH2 0xB5C JUMP JUMPDEST DUP2 ADD DUP2 DUP2 LT PUSH8 0xFFFFFFFFFFFFFFFF DUP3 GT OR ISZERO PUSH2 0xC82 JUMPI PUSH2 0xC81 PUSH2 0xC2B JUMP JUMPDEST JUMPDEST DUP1 PUSH1 0x40 MSTORE POP POP POP JUMP JUMPDEST PUSH1 0x0 PUSH2 0xC95 PUSH2 0x937 JUMP JUMPDEST SWAP1 POP PUSH2 0xCA1 DUP3 DUP3 PUSH2 0xC5A JUMP JUMPDEST SWAP2 SWAP1 POP JUMP JUMPDEST PUSH1 0x0 PUSH8 0xFFFFFFFFFFFFFFFF DUP3 GT ISZERO PUSH2 0xCC1 JUMPI PUSH2 0xCC0 PUSH2 0xC2B JUMP JUMPDEST JUMPDEST PUSH2 0xCCA DUP3 PUSH2 0xB5C JUMP JUMPDEST SWAP1 POP PUSH1 0x20 DUP2 ADD SWAP1 POP SWAP2 SWAP1 POP JUMP JUMPDEST DUP3 DUP2 DUP4 CALLDATACOPY PUSH1 0x0 DUP4 DUP4 ADD MSTORE POP POP POP JUMP JUMPDEST PUSH1 0x0 PUSH2 0xCF9 PUSH2 0xCF4 DUP5 PUSH2 0xCA6 JUMP JUMPDEST PUSH2 0xC8B JUMP JUMPDEST SWAP1 POP DUP3 DUP2 MSTORE PUSH1 0x20 DUP2 ADD DUP5 DUP5 DUP5 ADD GT ISZERO PUSH2 0xD15 JUMPI PUSH2 0xD14 PUSH2 0xC26 JUMP JUMPDEST JUMPDEST PUSH2 0xD20 DUP5 DUP3 DUP6 PUSH2 0xCD7 JUMP JUMPDEST POP SWAP4 SWAP3 POP POP POP JUMP JUMPDEST PUSH1 0x0 DUP3 PUSH1 0x1F DUP4 ADD SLT PUSH2 0xD3D JUMPI PUSH2 0xD3C PUSH2 0xC21 JUMP JUMPDEST JUMPDEST DUP2 CALLDATALOAD PUSH2 0xD4D DUP5 DUP3 PUSH1 0x20 DUP7 ADD PUSH2 0xCE6 JUMP JUMPDEST SWAP2 POP POP SWAP3 SWAP2 POP POP JUMP JUMPDEST PUSH2 0xD5F DUP2 PUSH2 0xBA6 JUMP JUMPDEST DUP2 EQ PUSH2 0xD6A JUMPI PUSH1 0x0 DUP1 REVERT JUMPDEST POP JUMP JUMPDEST PUSH1 0x0 DUP2 CALLDATALOAD SWAP1 POP PUSH2 0xD7C DUP2 PUSH2 0xD56 JUMP JUMPDEST SWAP3 SWAP2 POP POP JUMP JUMPDEST PUSH1 0x0 DUP1 PUSH1 0x0 PUSH1 0x60 DUP5 DUP7 SUB SLT ISZERO PUSH2 0xD9B JUMPI PUSH2 0xD9A PUSH2 0x941 JUMP JUMPDEST JUMPDEST PUSH1 0x0 DUP5 ADD CALLDATALOAD PUSH8 0xFFFFFFFFFFFFFFFF DUP2 GT ISZERO PUSH2 0xDB9 JUMPI PUSH2 0xDB8 PUSH2 0x946 JUMP JUMPDEST JUMPDEST PUSH2 0xDC5 DUP7 DUP3 DUP8 ADD PUSH2 0xD28 JUMP JUMPDEST SWAP4 POP POP PUSH1 0x20 PUSH2 0xDD6 DUP7 DUP3 DUP8 ADD PUSH2 0xAD4 JUMP JUMPDEST SWAP3 POP POP PUSH1 0x40 PUSH2 0xDE7 DUP7 DUP3 DUP8 ADD PUSH2 0xD6D JUMP JUMPDEST SWAP2 POP POP SWAP3 POP SWAP3 POP SWAP3 JUMP JUMPDEST PUSH32 0x4E487B7100000000000000000000000000000000000000000000000000000000 PUSH1 0x0 MSTORE PUSH1 0x22 PUSH1 0x4 MSTORE PUSH1 0x24 PUSH1 0x0 REVERT JUMPDEST PUSH1 0x0 PUSH1 0x2 DUP3 DIV SWAP1 POP PUSH1 0x1 DUP3 AND DUP1 PUSH2 0xE38 JUMPI PUSH1 0x7F DUP3 AND SWAP2 POP JUMPDEST PUSH1 0x20 DUP3 LT DUP2 SUB PUSH2 0xE4B JUMPI PUSH2 0xE4A PUSH2 0xDF1 JUMP JUMPDEST JUMPDEST POP SWAP2 SWAP1 POP JUMP JUMPDEST PUSH1 0x0 DUP2 SWAP1 POP DUP2 PUSH1 0x0 MSTORE PUSH1 0x20 PUSH1 0x0 KECCAK256 SWAP1 POP SWAP2 SWAP1 POP JUMP JUMPDEST PUSH1 0x0 PUSH1 0x20 PUSH1 0x1F DUP4 ADD DIV SWAP1 POP SWAP2 SWAP1 POP JUMP JUMPDEST PUSH1 0x0 DUP3 DUP3 SHL SWAP1 POP SWAP3 SWAP2 POP POP JUMP JUMPDEST PUSH1 0x0 PUSH1 0x8 DUP4 MUL PUSH2 0xEB3 PUSH32 0xFFFFFFFFFFFFFFFFFFFFFFFFFFFFFFFFFFFFFFFFFFFFFFFFFFFFFFFFFFFFFFFF DUP3 PUSH2 0xE76 JUMP JUMPDEST PUSH2 0xEBD DUP7 DUP4 PUSH2 0xE76 JUMP JUMPDEST SWAP6 POP DUP1 NOT DUP5 AND SWAP4 POP DUP1 DUP7 AND DUP5 OR SWAP3 POP POP POP SWAP4 SWAP3 POP POP POP JUMP JUMPDEST PUSH1 0x0 DUP2 SWAP1 POP SWAP2 SWAP1 POP JUMP JUMPDEST PUSH1 0x0 PUSH2 0xEFA PUSH2 0xEF5 PUSH2 0xEF0 DUP5 PUSH2 0xA0C JUMP JUMPDEST PUSH2 0xED5 JUMP JUMPDEST PUSH2 0xA0C JUMP JUMPDEST SWAP1 POP SWAP2 SWAP1 POP JUMP JUMPDEST PUSH1 0x0 DUP2 SWAP1 POP SWAP2 SWAP1 POP JUMP JUMPDEST PUSH2 0xF14 DUP4 PUSH2 0xEDF JUMP JUMPDEST PUSH2 0xF28 PUSH2 0xF20 DUP3 PUSH2 0xF01 JUMP JUMPDEST DUP5 DUP5 SLOAD PUSH2 0xE83 JUMP JUMPDEST DUP3 SSTORE POP POP POP POP JUMP JUMPDEST PUSH1 0x0 SWAP1 JUMP JUMPDEST PUSH2 0xF3D PUSH2 0xF30 JUMP JUMPDEST PUSH2 0xF48 DUP2 DUP5 DUP5 PUSH2 0xF0B JUMP JUMPDEST POP POP POP JUMP JUMPDEST JUMPDEST DUP2 DUP2 LT ISZERO PUSH2 0xF6C JUMPI PUSH2 0xF61 PUSH1 0x0 DUP3 PUSH2 0xF35 JUMP JUMPDEST PUSH1 0x1 DUP2 ADD SWAP1 POP PUSH2 0xF4E JUMP JUMPDEST POP POP JUMP JUMPDEST PUSH1 0x1F DUP3 GT ISZERO PUSH2 0xFB1 JUMPI PUSH2 0xF82 DUP2 PUSH2 0xE51 JUMP JUMPDEST PUSH2 0xF8B DUP5 PUSH2 0xE66 JUMP JUMPDEST DUP2 ADD PUSH1 0x20 DUP6 LT ISZERO PUSH2 0xF9A JUMPI DUP2 SWAP1 POP JUMPDEST PUSH2 0xFAE PUSH2 0xFA6 DUP6 PUSH2 0xE66 JUMP JUMPDEST DUP4 ADD DUP3 PUSH2 0xF4D JUMP JUMPDEST POP POP JUMPDEST POP POP POP JUMP JUMPDEST PUSH1 0x0 DUP3 DUP3 SHR SWAP1 POP SWAP3 SWAP2 POP POP JUMP JUMPDEST PUSH1 0x0 PUSH2 0xFD4 PUSH1 0x0 NOT DUP5 PUSH1 0x8 MUL PUSH2 0xFB6 JUMP JUMPDEST NOT DUP1 DUP4 AND SWAP2 POP POP SWAP3 SWAP2 POP POP JUMP JUMPDEST PUSH1 0x0 PUSH2 0xFED DUP4 DUP4 PUSH2 0xFC3 JUMP JUMPDEST SWAP2 POP DUP3 PUSH1 0x2 MUL DUP3 OR SWAP1 POP SWAP3 SWAP2 POP POP JUMP JUMPDEST PUSH2 0x1006 DUP3 PUSH2 0xB16 JUMP JUMPDEST PUSH8 0xFFFFFFFFFFFFFFFF DUP2 GT ISZERO PUSH2 0x101F JUMPI PUSH2 0x101E PUSH2 0xC2B JUMP JUMPDEST JUMPDEST PUSH2 0x1029 DUP3 SLOAD PUSH2 0xE20 JUMP JUMPDEST PUSH2 0x1034 DUP3 DUP3 DUP6 PUSH2 0xF70 JUMP JUMPDEST PUSH1 0x0 PUSH1 0x20 SWAP1 POP PUSH1 0x1F DUP4 GT PUSH1 0x1 DUP2 EQ PUSH2 0x1067 JUMPI PUSH1 0x0 DUP5 ISZERO PUSH2 0x1055 JUMPI DUP3 DUP8 ADD MLOAD SWAP1 POP JUMPDEST PUSH2 0x105F DUP6 DUP3 PUSH2 0xFE1 JUMP JUMPDEST DUP7 SSTORE POP PUSH2 0x10C7 JUMP JUMPDEST PUSH1 0x1F NOT DUP5 AND PUSH2 0x1075 DUP7 PUSH2 0xE51 JUMP JUMPDEST PUSH1 0x0 JUMPDEST DUP3 DUP2 LT ISZERO PUSH2 0x109D JUMPI DUP5 DUP10 ADD MLOAD DUP3 SSTORE PUSH1 0x1 DUP3 ADD SWAP2 POP PUSH1 0x20 DUP6 ADD SWAP5 POP PUSH1 0x20 DUP2 ADD SWAP1 POP PUSH2 0x1078 JUMP JUMPDEST DUP7 DUP4 LT ISZERO PUSH2 0x10BA JUMPI DUP5 DUP10 ADD MLOAD PUSH2 0x10B6 PUSH1 0x1F DUP10 AND DUP3 PUSH2 0xFC3 JUMP JUMPDEST DUP4 SSTORE POP JUMPDEST PUSH1 0x1 PUSH1 0x2 DUP9 MUL ADD DUP9 SSTORE POP POP POP JUMPDEST POP POP POP POP POP POP JUMP JUMPDEST PUSH32 0x4E487B7100000000000000000000000000000000000000000000000000000000 PUSH1 0x0 MSTORE PUSH1 0x11 PUSH1 0x4 MSTORE PUSH1 0x24 PUSH1 0x0 REVERT JUMPDEST PUSH1 0x0 PUSH2 0x1109 DUP3 PUSH2 0xA0C JUMP JUMPDEST SWAP2 POP PUSH32 0xFFFFFFFFFFFFFFFFFFFFFFFFFFFFFFFFFFFFFFFFFFFFFFFFFFFFFFFFFFFFFFFF DUP3 SUB PUSH2 0x113B JUMPI PUSH2 0x113A PUSH2 0x10CF JUMP JUMPDEST JUMPDEST PUSH1 0x1 DUP3 ADD SWAP1 POP SWAP2 SWAP1 POP JUMP JUMPDEST PUSH32 0x4E487B7100000000000000000000000000000000000000000000000000000000 PUSH1 0x0 MSTORE PUSH1 0x32 PUSH1 0x4 MSTORE PUSH1 0x24 PUSH1 0x0 REVERT JUMPDEST PUSH32 0x4E487B7100000000000000000000000000000000000000000000000000000000 PUSH1 0x0 MSTORE PUSH1 0x12 PUSH1 0x4 MSTORE PUSH1 0x24 PUSH1 0x0 REVERT JUMPDEST PUSH1 0x0 PUSH2 0x11AF DUP3 PUSH2 0xA0C JUMP JUMPDEST SWAP2 POP PUSH2 0x11BA DUP4 PUSH2 0xA0C JUMP JUMPDEST SWAP3 POP DUP3 PUSH2 0x11CA JUMPI PUSH2 0x11C9 PUSH2 0x1175 JUMP JUMPDEST JUMPDEST DUP3 DUP3 DIV SWAP1 POP SWAP3 SWAP2 POP POP JUMP INVALID LOG2 PUSH5 0x6970667358 0x22 SLT KECCAK256 0x2D 0xDE LOG2 0xA6 0xC6 GT 0xDB 0xD0 0xCD 0xAF DUP11 0xCE SLT 0x5E 0xFB EXTCODESIZE 0x23 SWAP7 PUSH23 0x493F28166B0EF7E659E81C096464736F6C634300081100 CALLER "},"gasEstimates":{"creation":{"codeDepositCost":"923800","executionCost":"infinite","totalCost":"infinite"},"external":{"approveRequest(uint256)":"infinite","approvers(address)":"2846","approversCount()":"2540","contractAddress()":"2580","contribute()":"51022","createRequest(string,uint256,address)":"infinite","finaliseRequest(uint256)":"infinite","getRequestsCount()":"2468","getSummary()":"infinite","manager()":"2581","minimumContribution()":"2474","requests(uint256)":"infinite","requestsCount()":"2517"}},"methodIdentifiers":{"approveRequest(uint256)":"d7d1bbdb","approvers(address)":"0a144391","approversCount()":"82fde093","contractAddress()":"f6b4dfb4","contribute()":"d7bb99ba","createRequest(string,uint256,address)":"8a9cfd55","finaliseRequest(uint256)":"e7b668b4","getRequestsCount()":"3410452a","getSummary()":"4051ddac","manager()":"481c6a75","minimumContribution()":"937e09b1","requests(uint256)":"81d12c58","requestsCount()":"fbfa4b7f"}},"storageLayout":{"storage":[{"astId":63,"contract":"Campaign.sol:Campaign","label":"requests","offset":0,"slot":"0","type":"t_array(t_struct(Request)59_storage)dyn_storage"},{"astId":65,"contract":"Campaign.sol:Campaign","label":"manager","offset":0,"slot":"1","type":"t_address"},{"astId":67,"contract":"Campaign.sol:Campaign","label":"minimumContribution","offset":0,"slot":"2","type":"t_uint256"},{"astId":71,"contract":"Campaign.sol:Campaign","label":"approvers","offset":0,"slot":"3","type":"t_mapping(t_address,t_bool)"},{"astId":73,"contract":"Campaign.sol:Campaign","label":"approversCount","offset":0,"slot":"4","type":"t_uint256"},{"astId":75,"contract":"Campaign.sol:Campaign","label":"requestsCount","offset":0,"slot":"5","type":"t_uint256"},{"astId":81,"contract":"Campaign.sol:Campaign","label":"contractAddress","offset":0,"slot":"6","type":"t_address"}],"types":{"t_address":{"encoding":"inplace","label":"address","numberOfBytes":"20"},"t_address_payable":{"encoding":"inplace","label":"address payable","numberOfBytes":"20"},"t_array(t_struct(Request)59_storage)dyn_storage":{"base":"t_struct(Request)59_storage","encoding":"dynamic_array","label":"struct Campaign.Request[]","numberOfBytes":"32"},"t_bool":{"encoding":"inplace","label":"bool","numberOfBytes":"1"},"t_mapping(t_address,t_bool)":{"encoding":"mapping","key":"t_address","label":"mapping(address => bool)","numberOfBytes":"32","value":"t_bool"},"t_string_storage":{"encoding":"bytes","label":"string","numberOfBytes":"32"},"t_struct(Request)59_storage":{"encoding":"inplace","label":"struct Campaign.Request","members":[{"astId":46,"contract":"Campaign.sol:Campaign","label":"description","offset":0,"slot":"0","type":"t_string_storage"},{"astId":48,"contract":"Campaign.sol:Campaign","label":"value","offset":0,"slot":"1","type":"t_uint256"},{"astId":50,"contract":"Campaign.sol:Campaign","label":"recipient","offset":0,"slot":"2","type":"t_address_payable"},{"astId":52,"contract":"Campaign.sol:Campaign","label":"complete","offset":20,"slot":"2","type":"t_bool"},{"astId":54,"contract":"Campaign.sol:Campaign","label":"approvalCount","offset":0,"slot":"3","type":"t_uint256"},{"astId":58,"contract":"Campaign.sol:Campaign","label":"approvals","offset":0,"slot":"4","type":"t_mapping(t_address,t_bool)"}],"numberOfBytes":"160"},"t_uint256":{"encoding":"inplace","label":"uint256","numberOfBytes":"32"}}},"userdoc":{"kind":"user","methods":{},"version":1}}